:100000000C9457000C9474000C9474000C947400BD
:100010000C9474000C9474000C9474000C94740090
:100020000C9474000C9474000C9474000C94740080
:100030000C9474000C9474000C9474000C94740070
:100040000C94AE000C9474000C9474000C94740026
:100050000C94740000000000240027002A00000017
:100060000000250028002B000000000023002600CF
:10007000290004040404040404040202020202022B
:10008000030303030303010204081020408001025C
:1000900004081020010204081020000000070002DC
:1000A000010000030406000000000000000011240D
:1000B0001FBECFE5D4E0DEBFCDBF10E0A0E6B0E0CC
:1000C000EEE3F4E002C005900D92A036B107D9F737
:1000D00010E0A0E6B0E001C01D92A936B107E1F73B
:1000E0000E949D000C941D020C940000DF93CF939E
:1000F000CDB7DEB78DE061E00E94C90168EE73E024
:1001000080E090E00E94F6008DE060E00E94C9016E
:1001100068EE73E080E090E00E94F600CF91DF91FE
:100120000895DF93CF93CDB7DEB78DE061E00E94F5
:100130008A01CF91DF9108950895CF93DF930E94B4
:100140004F010E949C000E949100C0E0D0E00E94FC
:1001500076002097E1F30E940000F9CF1F920F92E2
:100160000FB60F9211242F933F938F939F93AF93CA
:10017000BF938091640090916500A0916600B0915A
:100180006700309168000196A11DB11D232F2D5FDE
:100190002D3720F02D570196A11DB11D2093680029
:1001A0008093640090936500A0936600B09367000D
:1001B0008091600090916100A0916200B091630015
:1001C0000196A11DB11D8093600090936100A093E2
:1001D0006200B0936300BF91AF919F918F913F9167
:1001E0002F910F900FBE0F901F9018959B01AC019F
:1001F0007FB7F8948091600090916100A0916200B7
:10020000B091630066B5A89B05C06F3F19F00196D9
:10021000A11DB11D7FBFBA2FA92F982F8827860F48
:10022000911DA11DB11D62E0880F991FAA1FBB1F60
:100230006A95D1F7BC012DC0FFB7F894809160009A
:1002400090916100A0916200B0916300E6B5A89B17
:1002500005C0EF3F19F00196A11DB11DFFBFBA2FD8
:10026000A92F982F88278E0F911DA11DB11DE2E0A7
:10027000880F991FAA1FBB1FEA95D1F7861B970B02
:10028000885E9340C8F22150304040405040685151
:100290007C4F211531054105510571F6089578947B
:1002A00084B5826084BD84B5816084BD85B582607B
:1002B00085BD85B5816085BDEEE6F0E08081816019
:1002C0008083E1E8F0E01082808182608083808119
:1002D00081608083E0E8F0E0808181608083E1EBF1
:1002E000F0E0808184608083E0EBF0E080818160D9
:1002F0008083EAE7F0E0808184608083808182608F
:100300008083808181608083808180688083109277
:10031000C1000895CF93DF93482F50E0CA018A5758
:100320009F4FFC0134914E585F4FFA01849188230E
:1003300069F190E0880F991FFC01EC5AFF4FA591DD
:10034000B491FC01E25AFF4FC591D491662351F458
:100350002FB7F8948C91932F909589238C93888153
:1003600089230BC0623061F42FB7F8948C91932FDE
:10037000909589238C938881832B88832FBF06C017
:100380009FB7F8948C91832B8C939FBFDF91CF9173
:100390000895482F50E0CA0186569F4FFC012491D2
:1003A000CA018A579F4FFC0194914E585F4FFA0142
:1003B0003491332309F440C0222351F1233071F0EA
:1003C000243028F42130A1F0223011F514C0263059
:1003D000B1F02730C1F02430D9F404C080918000FE
:1003E0008F7703C0809180008F7D8093800010C044
:1003F00084B58F7702C084B58F7D84BD09C080919C
:10040000B0008F7703C08091B0008F7D8093B000E3
:10041000E32FF0E0EE0FFF1FE25AFF4FA591B491DA
:100420002FB7F894662321F48C919095892302C00C
:0E0430008C91892B8C932FBF0895F894FFCFE9
:00000001FF
