:1000000062C00000F8C3000023C4000081C00000EB
:100010007FC000007DC000007BC0000079C00000F0
:1000200077C0000075C0000073C0000071C0000000
:100030006FC000006DC000006BC0000069C0000010
:100040003FC4000065C0000028C2000058C2000084
:100050005FC000005DC000005BC0000059C0000030
:1000600057C0000055C00000000000080002010059
:100070000003040700000000000000000102040863
:100080001020408001020408102001020408102002
:10009000040404040404040402020202020203032E
:1000A00003030303000000002300260029000000D2
:1000B0000000250028002B0000000000240027007D
:1000C0002A000601AD0211241FBECFEFD8E0DEBF2B
:1000D000CDBF11E0A0E0B1E0ECE6FBE002C005908E
:1000E0000D92A231B107D9F721E0A2E1B1E001C040
:1000F0001D92AF3CB207E1F710E0C6ECD0E003C0C0
:100100002297FE012DD5C23CD107D1F7CFD32CC504
:1001100077CF61E084E09FD461E085E09CD461E02A
:1001200086E099D461E087E096C4EF92FF920F9346
:100130001F93CF93DF93EC01062FE72E142FF52E9C
:100140002CE030E03B832A83198218820496E1DF99
:1001500026E040E855E260E070E085E291E03DD1C4
:1001600060E0802F78D460E0812F75D4098BEA8A13
:100170001F87F88A1C861B861E861D861E821D828E
:1001800018861F821A861986DF91CF911F910F91D1
:10019000FF90EF900895CF93DF93EC01898915D4F8
:1001A00097FD07C0959587959E838D83DF91CF91AD
:1001B00008950196959587959E838D83DF91CF91C4
:1001C0000895CF93DF93EC018F857ED498878F833A
:1001D000DF91CF91089526E040E855E260E070E0BD
:1001E00085E291E0FAC082E191E0D5DF4AE050E09B
:1001F000BC0185E291E0E9D282E191E0E2DF4AE0F0
:1002000050E0BC0185E291E0E0D2EDCF42E050E069
:1002100060E070E082E191E088CFFC01818D228D69
:1002200090E0805C9F4F821B91098F7399270895FE
:10023000FC01918D828D981731F0828DE80FF11DB0
:10024000858D90E008958FEF9FEF0895FC01918DCB
:10025000828D981761F0828DDF01A80FB11D5D9628
:100260008C91928D9F5F9F73928F90E008958FEF96
:100270009FEF089584EA92E0892B41F080E090E0BE
:10028000892B21F061D181110C9400000895FC01AB
:10029000848DDF01A80FB11DA35ABF4F2C91848D0F
:1002A00090E001968F739927848FA689B7892C9344
:1002B000A089B1898C9180648C93938D848D9813DF
:1002C00006C00288F389E02D80818F7D80830895A8
:1002D000CF93DF93EC01888D8823C1F0EA89FB89F5
:1002E000808185FD05C0A889B9898C9186FD0EC0E5
:1002F0000FB607FCF5CF808185FFF2CFA889B989B9
:100300008C9185FFEDCFCE01C2DFE8CFDF91CF9199
:100310000895CF92DF92FF920F931F93CF93DF93B5
:100320001F92CDB7DEB76C01DC015B969C915B97A9
:100330005C968C915C97981307C05096ED91FC9158
:100340005197808185FD31C0F601038D10E00F5F6C
:100350001F4F0F731127F02EF601848DF81210C075
:100360000FB607FCF9CFD6015096ED91FC9151974D
:10037000808185FFF1CFC601698389DF6981ECCF78
:10038000838DE80FF11DE35AFF4F6083D6015B9622
:100390000C935B975296ED91FC915397808180620C
:1003A000808381E058968C930DC0D6015696ED91CE
:1003B000FC91579760835096ED91FC915197808105
:1003C0008064808381E090E00F90DF91CF911F9156
:1003D0000F91FF90DF90CF900895BF92CF92DF9260
:1003E000EF92FF92CF93DF93EC016A017B01B22E73
:1003F000E889F98982E08083411581EE580761051B
:10040000710599F060E079E08DE390E0A701960135
:1004100083D32150310941095109569547953795A4
:100420002795211580E1380790F0E889F989108235
:1004300060E874E88EE190E0A70196016DD3215049
:100440003109410951095695479537952795EC850E
:10045000FD853083EE85FF852083188EEC89FD892C
:10046000B082EA89FB89808180618083EA89FB8987
:10047000808188608083EA89FB89808180688083AD
:10048000EA89FB8980818F7D8083DF91CF91FF9006
:10049000EF90DF90CF90BF9008951F920F920FB60C
:1004A0000F9211242F938F939F93EF93FF93E091DB
:1004B0003501F09136018081E0913B01F0913C01E2
:1004C00082FD12C0908180913E018F5F8F732091D9
:1004D0003F01821751F0E0913E01F0E0EB5DFE4FED
:1004E000958F80933E0101C08081FF91EF919F9194
:1004F0008F912F910F900FBE0F901F9018951F9204
:100500000F920FB60F9211242F933F934F935F9347
:100510006F937F938F939F93AF93BF93EF93FF93CB
:1005200085E291E0B4DEFF91EF91BF91AF919F9191
:100530008F917F916F915F914F913F912F910F908C
:100540000FBE0F901F90189585E291E066DE21E0C6
:10055000892B09F420E0822F08951092280110922F
:10056000270188EE93E0A0E0B0E08093290190930A
:100570002A01A0932B01B0932C0185E091E0909388
:1005800026018093250185EC90E0909332018093C1
:10059000310184EC90E0909334018093330180EC3E
:1005A00090E0909336018093350181EC90E0909338
:1005B00038018093370182EC90E090933A01809368
:1005C000390186EC90E090933C0180933B011092BE
:1005D0003E0110923F011092400110924101089596
:1005E000CF92DF92EF92FF920F931F93CF93DF93FF
:1005F0006C017A01EB01E60EF71E00E010E0CE156B
:10060000DF0561F06991D601ED91FC910190F081D7
:10061000E02DC6010995080F191FF1CFC801DF9120
:10062000CF911F910F91FF90EF90DF90CF900895A1
:100630006115710581F0DB010D900020E9F7AD0136
:1006400041505109461B570BDC01ED91FC91028092
:10065000F381E02D099480E090E00895DC01ED91B4
:10066000FC910190F081E02D09940F931F93CF939B
:10067000DF93EC016DE0F2DF8C016AE0CE01EEDF8A
:10068000800F911FDF91CF911F910F9108958F924D
:100690009F92AF92BF92CF92DF92EF92FF920F9311
:1006A0001F93CF93DF93CDB7DEB7A1970FB6F89422
:1006B000DEBF0FBECDBF7C01C42EE52FCB01D22EF5
:1006C00019A221E02D1510F02AE0D22E8E010F5D27
:1006D0001F4F8D2C912CA12CB12C6C2D7E2FA501A0
:1006E00094011AD28C2DD29E801911240150110927
:1006F0008A3014F4805D01C0895CF8018083211583
:1007000031054105510521F0C22EE32FCA01E5CF85
:10071000B801C7018DDFA1960FB6F894DEBF0FBEFA
:10072000CDBFDF91CF911F910F91FF90EF90DF90A0
:10073000CF90BF90AF909F908F900895CF92DF920F
:10074000EF92FF920F931F93CF93DF93EC016A0117
:100750007B012115310579F4E881F9810190F0815F
:10076000E02D642FDF91CF911F910F91FF90EF90BB
:10077000DF90CF9009942A303105D9F477FF18C063
:100780006DE26CDF8C0144275527BA014C195D09D5
:100790006E097F092AE0CE017ADF800F911FDF9179
:1007A000CF911F910F91FF90EF90DF90CF90089520
:1007B0002AE0B701A601CE01DF91CF911F910F91E1
:1007C000FF90EF90DF90CF9062CF0F931F93CF9366
:1007D000DF93EC019A01AB01662757FD6095762FF8
:1007E000ADDF8C01CE0141DF800F911FDF91CF91F2
:1007F0001F910F9108951F920F920FB60F9211241F
:100800002F933F934F935F936F937F938F939F9318
:10081000AF93BF93EF93FF938091C2019091C30177
:10082000892B29F0E091C201F091C3010995FF9154
:10083000EF91BF91AF919F918F917F916F915F9158
:100840004F913F912F910F900FBE0F901F901895D1
:100850001F920F920FB60F9211242F933F934F9335
:100860005F936F937F938F939F93AF93BF93EF9318
:10087000FF938091C4019091C501892B29F0E091EB
:10088000C401F091C5010995FF91EF91BF91AF911E
:100890009F918F917F916F915F914F913F912F9198
:1008A0000F900FBE0F901F901895089553D0FDDF45
:1008B00092DCCAE3D1E097DC2097E9F3DBDCFBCFE5
:1008C0001F920F920FB60F9211242F933F938F9385
:1008D0009F93AF93BF938091C7019091C801A0915E
:1008E000C901B091CA013091C60123E0230F2D3711
:1008F00020F40196A11DB11D05C026E8230F029624
:10090000A11DB11D2093C6018093C7019093C8011A
:10091000A093C901B093CA018091CB019091CC0101
:10092000A091CD01B091CE010196A11DB11D809382
:10093000CB019093CC01A093CD01B093CE01BF9198
:10094000AF919F918F913F912F910F900FBE0F907C
:100950001F901895789484B5826084BD84B58160B9
:1009600084BD85B5826085BD85B5816085BDEEE6B7
:10097000F0E0808181608083E1E8F0E01082808196
:1009800082608083808181608083E0E8F0E0808104
:1009900081608083E1EBF0E0808184608083E0EB24
:1009A000F0E0808181608083EAE7F0E0808184600C
:1009B0008083808182608083808181608083808168
:1009C000806880831092C10008958E3008F08E50A8
:1009D00087702091000190E4299F90011124822BBF
:1009E00080937C0080917A00806480937A0080916B
:1009F0007A0086FDFCCF809178002091790090E00C
:100A0000922B0895833081F028F4813099F0823060
:100A1000A1F008958730A9F08830B9F08430D1F47E
:100A2000809180008F7D03C0809180008F778093BC
:100A30008000089584B58F7702C084B58F7D84BD12
:100A400008958091B0008F7703C08091B0008F7DB2
:100A50008093B0000895CF93DF9390E0FC01E458B9
:100A6000FF4F2491FC01E057FF4F8491882349F107
:100A700090E0880F991FFC01E854FF4FA591B491B5
:100A800082559F4FFC01C591D4919FB7611108C059
:100A9000F8948C91209582238C93888182230AC0BC
:100AA000623051F4F8948C91322F309583238C93DB
:100AB0008881822B888304C0F8948C91822B8C933C
:100AC0009FBFDF91CF910895CF93DF93282F30E020
:100AD000F901E859FF4F8491F901E458FF4FD4918F
:100AE000F901E057FF4FC491CC2389F081118ADFCF
:100AF000EC2FF0E0EE0FFF1FEC55FF4FA591B491E6
:100B00002C912D2381E090E021F480E002C080E070
:100B100090E0DF91CF910895A1E21A2EAA1BBB1B92
:100B2000FD010DC0AA1FBB1FEE1FFF1FA217B307B9
:100B3000E407F50720F0A21BB30BE40BF50B661FCF
:100B4000771F881F991F1A9469F760957095809593
:100B500090959B01AC01BD01CF010895EE0FFF1FE1
:0C0B60000590F491E02D0994F894FFCF6B
:100B6C0001000000008901F0020D01260118016846
:020B7C00010076
:00000001FF
