:1000000062C0000010C500003BC5000081C00000B8
:100010007FC000007DC000007BC0000079C00000F0
:1000200077C0000075C0000073C0000071C0000000
:100030006FC000006DC000006BC0000069C0000010
:1000400057C5000065C00000F8C2000028C30000CA
:100050005FC000005DC000005BC0000059C0000030
:1000600057C0000055C00000000000080002010059
:100070000003040700000000000000000102040863
:100080001020408001020408102001020408102002
:10009000040404040404040402020202020203032E
:1000A00003030303000000002300260029000000D2
:1000B0000000250028002B0000000000240027007D
:1000C0002A00D1017D0311241FBECFEFD8E0DEBF8F
:1000D000CDBF11E0A0E0B1E0E8E9FEE002C005908C
:1000E0000D92A639B107D9F722E0A6E9B1E001C027
:1000F0001D92A235B207E1F710E0C6ECD0E003C0D4
:100100002297FE01C3D6C23CD107D1F7E7D4C2C6BD
:1001100077CF61E08CE038D668EE73E080E090E065
:1001200054D560E08CE030C6EF92FF920F931F939E
:10013000CF93DF93EC01062FE72E142FF52E26E048
:1001400040E855E260E070E088EA91E016D260E0B5
:10015000802FE1D560E0812FDED50C87ED861A87F0
:10016000FB861F821E8219861886198218821B82BE
:100170001A821D821C82DF91CF911F910F91FF90F7
:10018000EF900895CF93DF93EC018C857ED597FD9A
:1001900001969595879599838883DF91CF910895EE
:1001A000CF93DF93EC018A8524D69B838A83DF91EA
:1001B000CF910895CF93DF93EC0161E071E088EA7D
:1001C00091E01CD3CE01DEDF4AE050E0BC0188EABA
:1001D00091E0E3D36FE171E088EA91E00FD3CE01C3
:1001E000DFDF4AE050E0BC0188EA91E0D6D388EA3C
:1001F00091E00CD367E371E088EA91E0FFD26E8171
:100200007F814AE050E088EA91E0C0D36BE471E07E
:1002100088EA91E0F3D2688579854AE050E088EA7F
:1002200091E0B4D388EA91E0DF91CF91EFC2CF9310
:10023000DF93EC01A7DF853691052CF0CE01A2DF1C
:100240008039914094F0CE019DDF181619062CF4E8
:10025000CE0198DF84369105DCF062E370E080E047
:1002600090E0B3D480E090E027C08E819F8101961A
:100270009F838E8345978CF36DE571E088EA91E06A
:10028000D7D21F821E821986188682E090E012C0A3
:10029000888599850196998788874597F4F26DE559
:1002A00071E088EA91E0C4D21F821E821986188606
:1002B00081E090E09D838C83DF91CF910895FC01D4
:1002C0001182108273836283089583B7817F866071
:1002D00083BF83B7816083BF41E050E069E870E08D
:1002E00080E071D383B7816083BF889583B78E7FA9
:1002F00083BF83B78E7F83BF80E085C326E040E85D
:1003000055E260E070E088EA91E037D161E085E095
:1003100002C5CF93DF938AE991E04CDF8AE991E04F
:1003200086DFEC014AE050E0BC0188EA91E035D379
:10033000C230D105A9F4C5E0D0E061E085E024D564
:1003400064EF71E080E090E040D460E085E01CD58F
:1003500064EF71E080E090E038D4219771F717C026
:10036000C130D10589F46FE671E088EA91E060D28E
:1003700061E085E009D568E873E180E090E025D48C
:1003800060E085E001D503C01C161D061CF486E95B
:1003900091E09BDF6AE070E080E090E0DF91CF9138
:1003A00014C442E050E060E070E08AE991E0BCDE15
:1003B0006CE070E086E991E082CFFC01818D228DB6
:1003C00090E0805C9F4F821B91098F73992708955D
:1003D000FC01918D828D981731F0828DE80FF11D0F
:1003E000858D90E008958FEF9FEF0895FC01918D2A
:1003F000828D981761F0828DDF01A80FB11D5D9687
:100400008C91928D9F5F9F73928F90E008958FEFF4
:100410009FEF089584E793E0892B41F080E090E01E
:10042000892B21F061D181110C9400000895FC0109
:10043000848DDF01A80FB11DA35ABF4F2C91848D6D
:1004400090E001968F739927848FA689B7892C93A2
:10045000A089B1898C9180648C93938D848D98133D
:1004600006C00288F389E02D80818F7D8083089506
:10047000CF93DF93EC01888D8823C1F0EA89FB8953
:10048000808185FD05C0A889B9898C9186FD0EC043
:100490000FB607FCF5CF808185FFF2CFA889B98917
:1004A0008C9185FFEDCFCE01C2DFE8CFDF91CF91F8
:1004B0000895CF92DF92FF920F931F93CF93DF9314
:1004C0001F92CDB7DEB76C01DC015B969C915B9708
:1004D0005C968C915C97981307C05096ED91FC91B7
:1004E0005197808185FD31C0F601038D10E00F5FCB
:1004F0001F4F0F731127F02EF601848DF81210C0D4
:100500000FB607FCF9CFD6015096ED91FC915197AB
:10051000808185FFF1CFC601698389DF6981ECCFD6
:10052000838DE80FF11DE35AFF4F6083D6015B9680
:100530000C935B975296ED91FC915397808180626A
:10054000808381E058968C930DC0D6015696ED912C
:10055000FC91579760835096ED91FC915197808163
:100560008064808381E090E00F90DF91CF911F91B4
:100570000F91FF90DF90CF900895BF92CF92DF92BE
:10058000EF92FF92CF93DF93EC016A017B01B22ED1
:10059000E889F98982E08083411581EE5807610579
:1005A000710599F060E079E08DE390E0A701960194
:1005B00049D421503109410951095695479537953C
:1005C0002795211580E1380790F0E889F989108294
:1005D00060E874E88EE190E0A701960133D42150E1
:1005E0003109410951095695479537952795EC856D
:1005F000FD853083EE85FF852083188EEC89FD898B
:10060000B082EA89FB89808180618083EA89FB89E5
:10061000808188608083EA89FB898081806880830B
:10062000EA89FB8980818F7D8083DF91CF91FF9064
:10063000EF90DF90CF90BF9008951F920F920FB66A
:100640000F9211242F938F939F93EF93FF93E09139
:10065000B801F091B9018081E091BE01F091BF0134
:1006600082FD12C090818091C1018F5F8F732091B4
:10067000C201821751F0E091C101F0E0E855FE4F50
:10068000958F8093C10101C08081FF91EF919F916F
:100690008F912F910F900FBE0F901F9018951F9262
:1006A0000F920FB60F9211242F933F934F935F93A6
:1006B0006F937F938F939F93AF93BF93EF93FF932A
:1006C00088EA91E0B4DEFF91EF91BF91AF919F91E5
:1006D0008F917F916F915F914F913F912F910F90EB
:1006E0000FBE0F901F90189588EA91E066DE21E01A
:1006F000892B09F420E0822F08951092AB0110920B
:10070000AA0188EE93E0A0E0B0E08093AC01909362
:10071000AD01A093AE01B093AF018AE891E0909350
:10072000A9018093A80185EC90E09093B501809396
:10073000B40184EC90E09093B7018093B60180EC13
:1007400090E09093B9018093B80181EC90E0909390
:10075000BB018093BA0182EC90E09093BD0180933D
:10076000BC0186EC90E09093BF018093BE01109293
:10077000C1011092C2011092C3011092C4010895E8
:10078000CF92DF92EF92FF920F931F93CF93DF935D
:100790006C017A01EB01E60EF71E00E010E0CE15C9
:1007A000DF0561F06991D601ED91FC910190F08136
:1007B000E02DC6010995080F191FF1CFC801DF917F
:1007C000CF911F910F91FF90EF90DF90CF90089500
:1007D0006115710581F0DB010D900020E9F7AD0195
:1007E00041505109461B570BDC01ED91FC910280F1
:1007F000F381E02D099480E090E00895E9CFDC01D9
:10080000ED91FC910190F081E02D09940F931F93DD
:10081000CF93DF93EC016DE0F2DF8C016AE0CE0153
:10082000EEDF800F911FDF91CF911F910F910895FF
:100830000F931F93CF93DF93EC01CADF8C01CE019E
:10084000E5DF800F911FDF91CF911F910F910895E8
:100850008F929F92AF92BF92CF92DF92EF92FF92D0
:100860000F931F93CF93DF93CDB7DEB7A1970FB64A
:10087000F894DEBF0FBECDBF7C01C42EE52FCB01A7
:10088000D22E19A221E02D1510F02AE0D22E8E01D1
:100890000F5D1F4F8D2C912CA12CB12C6C2D7E2F18
:1008A000A5019401CFD28C2DD29E80191124015024
:1008B00011098A3014F4805D01C0895CF8018083DD
:1008C000211531054105510521F0C22EE32FCA0142
:1008D000E5CFB801C7017CDFA1960FB6F894DEBF63
:1008E0000FBECDBFDF91CF911F910F91FF90EF9081
:1008F000DF90CF90BF90AF909F908F900895CF9250
:10090000DF92EF92FF920F931F93CF93DF93EC014F
:100910006A017B012115310579F4E881F9810190A3
:10092000F081E02D642FDF91CF911F910F91FF9007
:10093000EF90DF90CF9009942A303105D9F477FFFA
:1009400018C06DE25CDF8C0144275527BA014C19B1
:100950005D096E097F092AE0CE017ADF800F911FC1
:10096000DF91CF911F910F91FF90EF90DF90CF908B
:1009700008952AE0B701A601CE01DF91CF911F9122
:100980000F91FF90EF90DF90CF9062CF9A01AB0173
:10099000662757FD6095762FB2CF0F931F93CF93A5
:1009A000DF93EC019A01AB01662757FD6095762F26
:1009B000A6DF8C01CE012ADF800F911FDF91CF913E
:1009C0001F910F9108958230E8F4E82FF0E0EE0FC8
:1009D000FF1FEB5BFD4F71836083813041F080919D
:1009E00069008C7F842B80936900E89A0895809138
:1009F0006900440F551F440F551F837F842B80933C
:100A00006900E99A0895823068F4813011F0E8981D
:100A100001C0E998E82FF0E0EE0FFF1FEB5BFD4F00
:100A20001182108208951F920F920FB60F92112417
:100A30002F933F934F935F936F937F938F939F93E6
:100A4000AF93BF93EF93FF9380914502909146023D
:100A5000892B29F0E0914502F09146020995FF911A
:100A6000EF91BF91AF919F918F917F916F915F9126
:100A70004F913F912F910F900FBE0F901F9018959F
:100A80001F920F920FB60F9211242F933F934F9303
:100A90005F936F937F938F939F93AF93BF93EF93E6
:100AA000FF938091470290914802892B29F0E091B1
:100AB0004702F09148020995FF91EF91BF91AF91E4
:100AC0009F918F917F916F915F914F913F912F9166
:100AD0000F900FBE0F901F90189508959BD0FDDFCB
:100AE0000DDCCAE0D2E015DC2097E9F393DCFBCF04
:100AF0001F920F920FB60F9211242F933F938F9353
:100B00009F93AF93BF9380914A0290914B02A09123
:100B10004C02B0914D023091490223E0230F2D3752
:100B200020F40196A11DB11D05C026E8230F0296F1
:100B3000A11DB11D2093490280934A0290934B025C
:100B4000A0934C02B0934D0280914E0290914F02BF
:100B5000A0915002B09151020196A11DB11D809348
:100B60004E0290934F02A0935002B0935102BF9156
:100B7000AF919F918F913F912F910F900FBE0F904A
:100B80001F9018953FB7F89480914E0290914F02B4
:100B9000A0915002B091510226B5A89B05C02F3FED
:100BA00019F00196A11DB11D3FBF6627782F892F2F
:100BB0009A2F620F711D811D911D42E0660F771FF4
:100BC000881F991F4A95D1F70895CF92DF92EF922F
:100BD000FF92CF93DF936B017C01D4DFEB01C11453
:100BE000D104E104F10479F02CD1CCDF6C1B7D0B36
:100BF000683E7340A0F381E0C81AD108E108F1080B
:100C0000C851DC4FECCFDF91CF91FF90EF90DF9098
:100C1000CF900895789484B5826084BD84B5816056
:100C200084BD85B5826085BD85B5816085BDEEE6F4
:100C3000F0E0808181608083E1E8F0E010828081D3
:100C400082608083808181608083E0E8F0E0808141
:100C500081608083E1EBF0E0808184608083E0EB61
:100C6000F0E0808181608083EAE7F0E08081846049
:100C700080838081826080838081816080838081A5
:100C8000806880831092C10008958E3008F08E50E5
:100C900087702091000190E4299F90011124822BFC
:100CA00080937C0080917A00806480937A008091A8
:100CB0007A0086FDFCCF809178002091790090E049
:100CC000922B0895833081F028F4813099F082309E
:100CD000A1F008958730A9F08830B9F08430D1F4BC
:100CE000809180008F7D03C0809180008F778093FA
:100CF0008000089584B58F7702C084B58F7D84BD50
:100D000008958091B0008F7703C08091B0008F7DEF
:100D10008093B0000895CF93DF9390E0FC01E458F6
:100D2000FF4F2491FC01E057FF4F8491882349F144
:100D300090E0880F991FFC01E854FF4FA591B491F2
:100D400082559F4FFC01C591D4919FB7611108C096
:100D5000F8948C91209582238C93888182230AC0F9
:100D6000623051F4F8948C91322F309583238C9318
:100D70008881822B888304C0F8948C91822B8C9379
:100D80009FBFDF91CF9108950F931F93CF93DF9370
:100D90001F92CDB7DEB7282F30E0F901E859FF4F99
:100DA0008491F901E458FF4F1491F901E057FF4F86
:100DB00004910023C1F0882319F0698383DF6981DE
:100DC000E02FF0E0EE0FFF1FE255FF4FA591B49129
:100DD0009FB7F8948C91611103C01095812301C0D5
:100DE000812B8C939FBF0F90DF91CF911F910F911B
:100DF0000895CF93DF93282F30E0F901E859FF4F92
:100E00008491F901E458FF4FD491F901E057FF4F65
:100E1000C491CC2389F0811155DFEC2FF0E0EE0F67
:100E2000FF1FEC55FF4FA591B4912C912D2381E02C
:100E300090E021F480E002C080E090E0DF91CF916B
:100E400008950895A1E21A2EAA1BBB1BFD010DC037
:100E5000AA1FBB1FEE1FFF1FA217B307E407F5076A
:100E600020F0A21BB30BE40BF50B661F771F881F46
:100E7000991F1A9469F760957095809590959B01DC
:100E8000AC01BD01CF010895EE0FFF1F0590F49155
:080E9000E02D0994F894FFCF56
:100E9800014343442053656E73696E672056616C45
:100EA8007565202831304B6F686D29203D20004240
:100EB8007269676874204469676974616C20766137
:100EC8006C7565203D200020202042726967687497
:100ED800207374617465203D3D200020202044610A
:100EE800726B205374617465203D3D2000536C651E
:100EF8006570206D6F646520427269676874004789
:100F08006574204461726B6564205475726E206F3D
:100F18006E204C454400000000005902C003DD016A
:060F2800F601E8013802A9
:00000001FF
