:1000000062C0000058C5000083C5000081C0000028
:100010007FC000007DC000007BC0000079C00000F0
:1000200077C0000075C0000073C0000071C0000000
:100030006FC000006DC000006BC0000069C0000010
:100040009FC5000065C0000040C3000070C30000F1
:100050005FC000005DC000005BC0000059C0000030
:1000600057C0000055C00000000000080002010059
:100070000003040700000000000000000102040863
:100080001020408001020408102001020408102002
:10009000040404040404040402020202020203032E
:1000A00003030303000000002300260029000000D2
:1000B0000000250028002B0000000000240027007D
:1000C0002A001902C50311241FBECFEFD8E0DEBFFE
:1000D000CDBF11E0A0E0B1E0E8E2FFE002C0059092
:1000E0000D92A63BB107D9F722E0A6EBB1E001C023
:1000F0001D92A237B207E1F710E0C6ECD0E003C0D2
:100100002297FE010BD7C23CD107D1F72FD50AC7E2
:1001100077CF61E08CE080D668EE73E080E090E01D
:100120009CD560E08CE078C6EF92FF920F931F930E
:10013000CF93DF93EC01062FE72E142FF52E26E048
:1001400040E855E260E070E088EC91E05ED260E06B
:10015000802F29D660E0812F26D60C87ED861A875E
:10016000FB861F821E8219861886198218821B82BE
:100170001A821D821C82DF91CF911F910F91FF90F7
:10018000EF900895CF93DF93EC018C85C6D597FD52
:1001900001969595879599838883DF91CF910895EE
:1001A000CF93DF93EC018A856CD69B838A83DF91A2
:1001B000CF910895CF93DF93EC0161E071E088EC7B
:1001C00091E064D3CE01DEDF4AE050E0BC0188EC70
:1001D00091E02BD46FE171E088EC91E057D3CE0130
:1001E000DFDF4AE050E0BC0188EC91E01ED488ECEF
:1001F00091E054D367E371E088EC91E047D36E81DE
:100200007F814AE050E088EC91E008D46BE471E033
:1002100088EC91E03BD3688579854AE050E088EC32
:1002200091E0FCD388EC91E039D36DE571E088EC86
:1002300091E02CD36C817D814AE050E088EC91E024
:10024000DF91CF91F2C3CF93DF93EC019BDF853633
:1002500091059CF08E819F8101969F838E830697E6
:10026000B4F06DE671E088EC91E02AD31F821E8223
:100270001986188682E090E024C0CE0183DF18162C
:1002800019062CF4CE017EDF8436910544F065E03A
:1002900070E080E090E0E1D480E090E012C08885DA
:1002A000998501969987888706978CF36FE771E0A7
:1002B00088EC91E005D31F821E821986188681E0A2
:1002C00090E0DF91CF910895FC0111821082738339
:1002D0006283089583B7817F866083BF83B781601F
:1002E00083BF41E050E069E870E080E0B4D383B7B9
:1002F000816083BF889583B78E7F83BF83B78E7FEE
:1003000083BF80E0C8C326E040E855E260E070E0CB
:1003100088EC91E07AD161E085E045C50F931F93A9
:10032000CF93DF938AEB91E045DF8AEB91E08BDF9F
:10033000EC014AE050E0BC0188EC91E076D380917A
:10034000BE019091BF01892B99F41C161D06A4F5DE
:10035000C130D10539F482E090E09093BF018093E1
:10036000BE012DC081E090E09093BF018093BE015B
:10037000C230D10509F58091BE019091BF0101976E
:1003800009F03DC0D093BF01C093BE0105E010E06D
:1003900061E085E041D564EF71E080E090E05DD4FC
:1003A00060E085E039D564EF71E080E090E055D4FD
:1003B0000150110969F723C0C130D105E9F48091DA
:1003C000BE019091BF010297D1F481E090E090933B
:1003D000BF018093BE016FE871E088EC91E070D2BC
:1003E00061E085E019D568E873E180E090E035D4FC
:1003F00060E085E011D503C01C161D068CF48AEB65
:1004000091E021DF18161906D4F78C179D0721F407
:1004100086EB91E05FDF04C01092BF011092BE0135
:1004200065E070E080E090E0DF91CF911F910F9147
:1004300014C442E050E060E070E08AEB91E074DECA
:100440006CE070E086EB91E03FCFFC01818D228D66
:1004500090E0805C9F4F821B91098F7399270895CC
:10046000FC01918D828D981731F0828DE80FF11D7E
:10047000858D90E008958FEF9FEF0895FC01918D99
:10048000828D981761F0828DDF01A80FB11D5D96F6
:100490008C91928D9F5F9F73928F90E008958FEF64
:1004A0009FEF08958CEB93E0892B41F080E090E082
:1004B000892B21F061D181110C9400000895FC0179
:1004C000848DDF01A80FB11DA35ABF4F2C91848DDD
:1004D00090E001968F739927848FA689B7892C9312
:1004E000A089B1898C9180648C93938D848D9813AD
:1004F00006C00288F389E02D80818F7D8083089576
:10050000CF93DF93EC01888D8823C1F0EA89FB89C2
:10051000808185FD05C0A889B9898C9186FD0EC0B2
:100520000FB607FCF5CF808185FFF2CFA889B98986
:100530008C9185FFEDCFCE01C2DFE8CFDF91CF9167
:100540000895CF92DF92FF920F931F93CF93DF9383
:100550001F92CDB7DEB76C01DC015B969C915B9777
:100560005C968C915C97981307C05096ED91FC9126
:100570005197808185FD31C0F601038D10E00F5F3A
:100580001F4F0F731127F02EF601848DF81210C043
:100590000FB607FCF9CFD6015096ED91FC9151971B
:1005A000808185FFF1CFC601698389DF6981ECCF46
:1005B000838DE80FF11DE35AFF4F6083D6015B96F0
:1005C0000C935B975296ED91FC91539780818062DA
:1005D000808381E058968C930DC0D6015696ED919C
:1005E000FC91579760835096ED91FC9151978081D3
:1005F0008064808381E090E00F90DF91CF911F9124
:100600000F91FF90DF90CF900895BF92CF92DF922D
:10061000EF92FF92CF93DF93EC016A017B01B22E40
:10062000E889F98982E08083411581EE58076105E8
:10063000710599F060E079E08DE390E0A701960103
:1006400049D42150310941095109569547953795AB
:100650002795211580E1380790F0E889F989108203
:1006600060E874E88EE190E0A701960133D4215050
:100670003109410951095695479537952795EC85DC
:10068000FD853083EE85FF852083188EEC89FD89FA
:10069000B082EA89FB89808180618083EA89FB8955
:1006A000808188608083EA89FB898081806880837B
:1006B000EA89FB8980818F7D8083DF91CF91FF90D4
:1006C000EF90DF90CF90BF9008951F920F920FB6DA
:1006D0000F9211242F938F939F93EF93FF93E091A9
:1006E000D801F091D9018081E091DE01F091DF0124
:1006F00082FD12C090818091E1018F5F8F73209104
:10070000E201821751F0E091E101F0E0E853FE4F81
:10071000958F8093E10101C08081FF91EF919F91BE
:100720008F912F910F900FBE0F901F9018951F92D1
:100730000F920FB60F9211242F933F934F935F9315
:100740006F937F938F939F93AF93BF93EF93FF9399
:1007500088EC91E0B4DEFF91EF91BF91AF919F9152
:100760008F917F916F915F914F913F912F910F905A
:100770000FBE0F901F90189588EC91E066DE21E087
:10078000892B09F420E0822F08951092CB0110925A
:10079000CA0188EE93E0A0E0B0E08093CC01909392
:1007A000CD01A093CE01B093CF018AEA91E090935E
:1007B000C9018093C80185EC90E09093D5018093A6
:1007C000D40184EC90E09093D7018093D60180EC23
:1007D00090E09093D9018093D80181EC90E09093C0
:1007E000DB018093DA0182EC90E09093DD0180934D
:1007F000DC0186EC90E09093DF018093DE011092A3
:10080000E1011092E2011092E3011092E4010895D7
:10081000CF92DF92EF92FF920F931F93CF93DF93CC
:100820006C017A01EB01E60EF71E00E010E0CE1538
:10083000DF0561F06991D601ED91FC910190F081A5
:10084000E02DC6010995080F191FF1CFC801DF91EE
:10085000CF911F910F91FF90EF90DF90CF9008956F
:100860006115710581F0DB010D900020E9F7AD0104
:1008700041505109461B570BDC01ED91FC91028060
:10088000F381E02D099480E090E00895E9CFDC0148
:10089000ED91FC910190F081E02D09940F931F934D
:1008A000CF93DF93EC016DE0F2DF8C016AE0CE01C3
:1008B000EEDF800F911FDF91CF911F910F9108956F
:1008C0000F931F93CF93DF93EC01CADF8C01CE010E
:1008D000E5DF800F911FDF91CF911F910F91089558
:1008E0008F929F92AF92BF92CF92DF92EF92FF9240
:1008F0000F931F93CF93DF93CDB7DEB7A1970FB6BA
:10090000F894DEBF0FBECDBF7C01C42EE52FCB0116
:10091000D22E19A221E02D1510F02AE0D22E8E0140
:100920000F5D1F4F8D2C912CA12CB12C6C2D7E2F87
:10093000A5019401CFD28C2DD29E80191124015093
:1009400011098A3014F4805D01C0895CF80180834C
:10095000211531054105510521F0C22EE32FCA01B1
:10096000E5CFB801C7017CDFA1960FB6F894DEBFD2
:100970000FBECDBFDF91CF911F910F91FF90EF90F0
:10098000DF90CF90BF90AF909F908F900895CF92BF
:10099000DF92EF92FF920F931F93CF93DF93EC01BF
:1009A0006A017B012115310579F4E881F981019013
:1009B000F081E02D642FDF91CF911F910F91FF9077
:1009C000EF90DF90CF9009942A303105D9F477FF6A
:1009D00018C06DE25CDF8C0144275527BA014C1921
:1009E0005D096E097F092AE0CE017ADF800F911F31
:1009F000DF91CF911F910F91FF90EF90DF90CF90FB
:100A000008952AE0B701A601CE01DF91CF911F9191
:100A10000F91FF90EF90DF90CF9062CF9A01AB01E2
:100A2000662757FD6095762FB2CF0F931F93CF9314
:100A3000DF93EC019A01AB01662757FD6095762F95
:100A4000A6DF8C01CE012ADF800F911FDF91CF91AD
:100A50001F910F9108958230E8F4E82FF0E0EE0F37
:100A6000FF1FEB59FD4F71836083813041F080910E
:100A700069008C7F842B80936900E89A08958091A7
:100A80006900440F551F440F551F837F842B8093AB
:100A90006900E99A0895823068F4813011F0E8988D
:100AA00001C0E998E82FF0E0EE0FFF1FEB59FD4F72
:100AB0001182108208951F920F920FB60F92112487
:100AC0002F933F934F935F936F937F938F939F9356
:100AD000AF93BF93EF93FF9380916502909166026D
:100AE000892B29F0E0916502F09166020995FF914A
:100AF000EF91BF91AF919F918F917F916F915F9196
:100B00004F913F912F910F900FBE0F901F9018950E
:100B10001F920F920FB60F9211242F933F934F9372
:100B20005F936F937F938F939F93AF93BF93EF9355
:100B3000FF938091670290916802892B29F0E091E0
:100B40006702F09168020995FF91EF91BF91AF9113
:100B50009F918F917F916F915F914F913F912F91D5
:100B60000F900FBE0F901F90189508959BD0FDDF3A
:100B7000CADBC2E5D2E0D2DB2097E9F393DCFBCFFE
:100B80001F920F920FB60F9211242F933F938F93C2
:100B90009F93AF93BF9380916A0290916B02A09153
:100BA0006C02B0916D023091690223E0230F2D3762
:100BB00020F40196A11DB11D05C026E8230F029661
:100BC000A11DB11D2093690280936A0290936B026C
:100BD000A0936C02B0936D0280916E0290916F02AF
:100BE000A0917002B09171020196A11DB11D809378
:100BF0006E0290936F02A0937002B0937102BF9146
:100C0000AF919F918F913F912F910F900FBE0F90B9
:100C10001F9018953FB7F89480916E0290916F02E3
:100C2000A0917002B091710226B5A89B05C02F3F1C
:100C300019F00196A11DB11D3FBF6627782F892F9E
:100C40009A2F620F711D811D911D42E0660F771F63
:100C5000881F991F4A95D1F70895CF92DF92EF929E
:100C6000FF92CF93DF936B017C01D4DFEB01C114C2
:100C7000D104E104F10479F02CD1CCDF6C1B7D0BA5
:100C8000683E7340A0F381E0C81AD108E108F1087A
:100C9000C851DC4FECCFDF91CF91FF90EF90DF9008
:100CA000CF900895789484B5826084BD84B58160C6
:100CB00084BD85B5826085BD85B5816085BDEEE664
:100CC000F0E0808181608083E1E8F0E01082808143
:100CD00082608083808181608083E0E8F0E08081B1
:100CE00081608083E1EBF0E0808184608083E0EBD1
:100CF000F0E0808181608083EAE7F0E080818460B9
:100D00008083808182608083808181608083808114
:100D1000806880831092C10008958E3008F08E5054
:100D200087702091000190E4299F90011124822B6B
:100D300080937C0080917A00806480937A00809117
:100D40007A0086FDFCCF809178002091790090E0B8
:100D5000922B0895833081F028F4813099F082300D
:100D6000A1F008958730A9F08830B9F08430D1F42B
:100D7000809180008F7D03C0809180008F77809369
:100D80008000089584B58F7702C084B58F7D84BDBF
:100D900008958091B0008F7703C08091B0008F7D5F
:100DA0008093B0000895CF93DF9390E0FC01E45866
:100DB000FF4F2491FC01E057FF4F8491882349F1B4
:100DC00090E0880F991FFC01E854FF4FA591B49162
:100DD00082559F4FFC01C591D4919FB7611108C006
:100DE000F8948C91209582238C93888182230AC069
:100DF000623051F4F8948C91322F309583238C9388
:100E00008881822B888304C0F8948C91822B8C93E8
:100E10009FBFDF91CF9108950F931F93CF93DF93DF
:100E20001F92CDB7DEB7282F30E0F901E859FF4F08
:100E30008491F901E458FF4F1491F901E057FF4FF5
:100E400004910023C1F0882319F0698383DF69814D
:100E5000E02FF0E0EE0FFF1FE255FF4FA591B49198
:100E60009FB7F8948C91611103C01095812301C044
:100E7000812B8C939FBF0F90DF91CF911F910F918A
:100E80000895CF93DF93282F30E0F901E859FF4F01
:100E90008491F901E458FF4FD491F901E057FF4FD5
:100EA000C491CC2389F0811155DFEC2FF0E0EE0FD7
:100EB000FF1FEC55FF4FA591B4912C912D2381E09C
:100EC00090E021F480E002C080E090E0DF91CF91DB
:100ED00008950895A1E21A2EAA1BBB1BFD010DC0A7
:100EE000AA1FBB1FEE1FFF1FA217B307E407F507DA
:100EF00020F0A21BB30BE40BF50B661F771F881FB6
:100F0000991F1A9469F760957095809590959B014B
:100F1000AC01BD01CF010895EE0FFF1F0590F491C4
:080F2000E02D0994F894FFCFC5
:100F2800014343442053656E73696E672056616CB4
:100F38007565202831304B6F686D29203D200042AF
:100F48007269676874204469676974616C207661A6
:100F58006C7565203D200020202042726967687406
:100F6800207374617465203D3D2000202020446179
:100F7800726B205374617465203D3D200062656684
:100F88006F7265207374617465203A2000536C6534
:100F98006570206D6F6465204272696768740053DC
:100FA8006C656570206D6F6465204461726B0047E5
:100FB8006574204461726B6564205475726E206F8D
:100FC8006E204C45440000000000A10208042502E0
:060FD8003E02300280021F
:00000001FF
