:1000000062C0000001C600002CC6000081C00000D4
:100010007FC000007DC000007BC0000079C00000F0
:1000200077C0000075C0000073C0000071C0000000
:100030006FC000006DC000006BC0000069C0000010
:1000400048C6000065C00000E9C3000019C40000F4
:100050005FC000005DC000005BC0000059C0000030
:1000600057C0000055C00000000000080002010059
:100070000003040700000000000000000102040863
:100080001020408001020408102001020408102002
:10009000040404040404040402020202020203032E
:1000A00003030303000000002300260029000000D2
:1000B0000000250028002B0000000000240027007D
:1000C0002A0010026E0411241FBECFEFD8E0DEBF5D
:1000D000CDBF12E0A0E0B1E0EAE7F0E102C0059098
:1000E0000D92A832B107D9F722E0A8E2B2E001C030
:1000F0001D92AA3FB207E1F710E0C6ECD0E003C0C2
:100100002297FE01B4D7C23CD107D1F7D8D5B3C7E7
:1001100077CF61E08CE029D768EE73E080E090E073
:1001200045D660E08CE021C7EF92FF920F931F93BA
:10013000CF93DF93EC01062FE72E142FF52E26E048
:1001400040E855E260E070E080E592E007D360E0CF
:10015000802FD2D660E0812FCFD60C87ED861A870C
:10016000FB861F821E8219861886198218821B82BE
:100170001A821D821C82DF91CF911F910F91FF90F7
:10018000EF900895CF93DF93EC018C856FD697FDA8
:1001900001969595879599838883DF91CF910895EE
:1001A000CF93DF93EC018A8515D79B838A83DF91F8
:1001B000CF910895CF93DF93EC0166E071E080E585
:1001C00092E00DD4CE01DEDF4AE050E0BC0180E5D4
:1001D00092E0D4D464E271E080E592E000D4CE01F4
:1001E000DFDF4AE050E0BC0180E592E0C7D480E563
:1001F00092E0FDD36CE371E080E592E0F0D36E8194
:100200007F814AE050E080E592E0B1D460E571E0A2
:1002100080E592E0E4D3688579854AE050E080E5A6
:1002200092E0A5D480E592E0E2D362E671E080E559
:1002300092E0D5D36C817D814AE050E080E592E088
:10024000DF91CF919BC4CF93DF93EC019BDF853689
:1002500091059CF08E819F8101969F838E830697E6
:10026000B4F062E771E080E592E0D3D31F821E8292
:100270001986188682E090E024C0CE0183DF18162C
:1002800019062CF4CE017EDF8436910544F065E03A
:1002900070E080E090E08AD580E090E012C0888530
:1002A000998501969987888706978CF364E871E0B1
:1002B00080E592E0AED31F821E821986188681E007
:1002C00090E0DF91CF910895FC0111821082738339
:1002D0006283089583B7817F866083BF83B781601F
:1002E00083BF41E050E069E870E080E05DD483B70F
:1002F000816083BF889583B78E7F83BF83B78E7FEE
:1003000083BF80E071C40F931F93CF93DF938CE280
:1003100092E050DF8CE292E096DFEC014AE050E0A0
:10032000BC0180E592E02AD48091300290913102A4
:10033000892B69F41C161D066CF4C130D10509F433
:1003400047C081E090E09093310280933002C23048
:10035000D105F1F0C130D10509F440C01C161D06CD
:1003600074F48CE292E06FDF18161906D4F7C81700
:10037000D90709F451C0109231021092300265E0A1
:1003800070E080E090E0DF91CF911F910F910EC55A
:100390008091300290913102019719F7D093310288
:1003A000C093300205E010E061E085E0DED564EF47
:1003B00071E080E090E0FAD460E085E0D6D564EFAB
:1003C00071E080E090E0F2D40150110969F7C9CFE3
:1003D00082E090E09093310280933002809130026D
:1003E00090913102029709F0BCCF81E090E09093A8
:1003F00031028093300264E971E080E592E009D334
:1004000061E085E0B2D568E873E180E090E0CED4A9
:1004100060E085E0AAD5A5CF88E292E05BDFAFCFB0
:1004200042E050E060E070E08CE292E07DDE6CE063
:1004300070E088E292E048CF8F929F92BF92CF9275
:10044000DF92EF92FF920F931F93CF93DF9326E0FB
:1004500040E855E260E070E080E592E07FD161E045
:1004600085E04AD55AE3C52E52E0D52E66E1B62E78
:10047000F6012B2D11922A95E9F76BEA71E080E5E0
:1004800092E0C7D24AE3C42E42E0D42EE60100E057
:1004900010E080E592E082D0892BD9F380E592E0EC
:1004A00096D07E01C0979983888380E592E08FD0B3
:1004B0004C01688179814AE050E080E592E057D3B1
:1004C00000FD08C00115110529F06EED71E080E511
:1004D00092E085D22296F70180819181839649F03E
:1004E0002AE08216910429F00F5F1F4F0A30110590
:1004F00081F680E592E07BD20AE312E0E12CF12C58
:10050000F80180819181EC01CC0FDD1F880F991FCC
:10051000880F991F880F991FC80FD91F8281938157
:10052000C80FD91F1C161D069CF5F701F595E79518
:10053000E050FF4F8081992787FD90958C179D078C
:100540003CF16CED71E080E592E049D24AE050E088
:10055000BE0180E592E00BD3F2E0EF0EF11C0C5FE0
:100560001F4F2AE0E216F10459F680E592E03FD2EF
:1005700069EF71E080E592E0DF91CF911F910F91DB
:10058000FF90EF90DF90CF90BF909F908F9041C2EF
:1005900060EE71E080E592E03CD26ACFFC01818D93
:1005A000228D90E0805C9F4F821B91098F73992769
:1005B0000895FC01918D828D981731F0828DE80F9E
:1005C000F11D858D90E008958FEF9FEF0895FC0158
:1005D000918D828D981761F0828DDF01A80FB11D7A
:1005E0005D968C91928D9F5F9F73928F90E008959E
:1005F0008FEF9FEF089585E694E0892B41F080E02E
:1006000090E0892B21F061D181110C9400000895B4
:10061000FC01848DDF01A80FB11DA35ABF4F2C919F
:10062000848D90E001968F739927848FA689B7896E
:100630002C93A089B1898C9180648C93938D848D47
:10064000981306C00288F389E02D80818F7D808316
:100650000895CF93DF93EC01888D8823C1F0EA8958
:10066000FB89808185FD05C0A889B9898C9186FDAB
:100670000EC00FB607FCF5CF808185FFF2CFA889A9
:10068000B9898C9185FFEDCFCE01C2DFE8CFDF9134
:10069000CF910895CF92DF92FF920F931F93CF9344
:1006A000DF931F92CDB7DEB76C01DC015B969C91A6
:1006B0005B975C968C915C97981307C05096ED9170
:1006C000FC915197808185FD31C0F601038D10E0CA
:1006D0000F5F1F4F0F731127F02EF601848DF81254
:1006E00010C00FB607FCF9CFD6015096ED91FC91E2
:1006F0005197808185FFF1CFC601698389DF6981C8
:10070000ECCF838DE80FF11DE35AFF4F6083D601D4
:100710005B960C935B975296ED91FC915397808179
:100720008062808381E058968C930DC0D6015696E6
:10073000ED91FC91579760835096ED91FC91519704
:1007400080818064808381E090E00F90DF91CF9181
:100750001F910F91FF90DF90CF900895BF92CF929D
:10076000DF92EF92FF92CF93DF93EC016A017B015E
:10077000B22EE889F98982E08083411581EE58071D
:100780006105710599F060E079E08DE390E0A701E3
:10079000960149D42150310941095109569547958F
:1007A00037952795211580E1380790F0E889F98978
:1007B000108260E874E88EE190E0A701960133D4DE
:1007C000215031094109510956954795379527958B
:1007D000EC85FD853083EE85FF852083188EEC89BE
:1007E000FD89B082EA89FB89808180618083EA8902
:1007F000FB89808188608083EA89FB8980818068A9
:100800008083EA89FB8980818F7D8083DF91CF910E
:10081000FF90EF90DF90CF90BF9008951F920F92BE
:100820000FB60F9211242F938F939F93EF93FF9303
:10083000E0916002F09161028081E0916602F091A6
:10084000670282FD12C09081809169028F5F8F7371
:1008500020916A02821751F0E0916902F0E0E05BBA
:10086000FD4F958F8093690201C08081FF91EF91C8
:100870009F918F912F910F900FBE0F901F90189501
:100880001F920F920FB60F9211242F933F934F9305
:100890005F936F937F938F939F93AF93BF93EF93E8
:1008A000FF9380E592E0B4DEFF91EF91BF91AF91AD
:1008B0009F918F917F916F915F914F913F912F9178
:1008C0000F900FBE0F901F90189580E592E066DEA6
:1008D00021E0892B09F420E0822F08951092530221
:1008E0001092520288EE93E0A0E0B0E080935402B0
:1008F00090935502A0935602B09357028BE192E079
:10090000909351028093500285EC90E090935D02A9
:1009100080935C0284EC90E090935F0280935E028F
:1009200080EC90E0909361028093600281EC90E013
:10093000909363028093620282EC90E09093650250
:100940008093640286EC90E0909367028093660245
:100950001092690210926A0210926B0210926C025D
:100960000895CF92DF92EF92FF920F931F93CF9350
:10097000DF936C017A01EB01E60EF71E00E010E058
:10098000CE15DF0561F06991D601ED91FC910190E2
:10099000F081E02DC6010995080F191FF1CFC8019C
:1009A000DF91CF911F910F91FF90EF90DF90CF904B
:1009B00008956115710581F0DB010D900020E9F7C4
:1009C000AD0141505109461B570BDC01ED91FC91E3
:1009D0000280F381E02D099480E090E00895E9CF52
:1009E000DC01ED91FC910190F081E02D09940F93D1
:1009F0001F93CF93DF93EC016DE0F2DF8C016AE08F
:100A0000CE01EEDF800F911FDF91CF911F910F91EB
:100A100008950F931F93CF93DF93EC01CADF8C01EE
:100A2000CE01E5DF800F911FDF91CF911F910F91D4
:100A300008958F929F92AF92BF92CF92DF92EF92E2
:100A4000FF920F931F93CF93DF93CDB7DEB7A1979C
:100A50000FB6F894DEBF0FBECDBF7C01C42EE52FCC
:100A6000CB01D22E19A221E02D1510F02AE0D22EB2
:100A70008E010F5D1F4F8D2C912CA12CB12C6C2D54
:100A80007E2FA5019401CFD28C2DD29E80191124E6
:100A9000015011098A3014F4805D01C0895CF801AD
:100AA0008083211531054105510521F0C22EE32F28
:100AB000CA01E5CFB801C7017CDFA1960FB6F89453
:100AC000DEBF0FBECDBFDF91CF911F910F91FF9081
:100AD000EF90DF90CF90BF90AF909F908F90089550
:100AE000CF92DF92EF92FF920F931F93CF93DF93FA
:100AF000EC016A017B012115310579F4E881F98166
:100B00000190F081E02D642FDF91CF911F910F9123
:100B1000FF90EF90DF90CF9009942A303105D9F4FF
:100B200077FF18C06DE25CDF8C0144275527BA01BE
:100B30004C195D096E097F092AE0CE017ADF800F2A
:100B4000911FDF91CF911F910F91FF90EF90DF9058
:100B5000CF9008952AE0B701A601CE01DF91CF9191
:100B60001F910F91FF90EF90DF90CF9062CF9A018D
:100B7000AB01662757FD6095762FB2CF0F931F9379
:100B8000CF93DF93EC019A01AB01662757FD609587
:100B9000762FA6DF8C01CE012ADF800F911FDF9117
:100BA000CF911F910F9108958230E8F4E82FF0E083
:100BB000EE0FFF1FE351FD4F71836083813041F0E1
:100BC000809169008C7F842B80936900E89A089556
:100BD00080916900440F551F440F551F837F842B5C
:100BE00080936900E99A0895823068F4813011F0A9
:100BF000E89801C0E998E82FF0E0EE0FFF1FE351FD
:100C0000FD4F1182108208951F920F920FB60F921E
:100C100011242F933F934F935F936F937F938F9301
:100C20009F93AF93BF93EF93FF938091ED029091C9
:100C3000EE02892B29F0E091ED02F091EE02099588
:100C4000FF91EF91BF91AF919F918F917F916F91A4
:100C50005F914F913F912F910F900FBE0F901F907A
:100C600018951F920F920FB60F9211242F933F9356
:100C70004F935F936F937F938F939F93AF93BF93A4
:100C8000EF93FF938091EF029091F002892B29F06E
:100C9000E091EF02F091F0020995FF91EF91BF9181
:100CA000AF919F918F917F916F915F914F913F9104
:100CB0002F910F900FBE0F901F90189508959BD005
:100CC000FDDFBADBCBEFD2E01EDB2097E9F393DC4C
:100CD000FBCF1F920F920FB60F9211242F933F93C9
:100CE0008F939F93AF93BF938091F2029091F30201
:100CF000A091F402B091F5023091F10223E0230FAC
:100D00002D3720F40196A11DB11D05C026E8230F43
:100D10000296A11DB11D2093F1028093F2029093DF
:100D2000F302A093F402B093F5028091F602909141
:100D3000F702A091F802B091F9020196A11DB11D30
:100D40008093F6029093F702A093F802B093F90211
:100D5000BF91AF919F918F913F912F910F900FBEB7
:100D60000F901F9018953FB7F8948091F6029091DC
:100D7000F702A091F802B091F90226B5A89B05C030
:100D80002F3F19F00196A11DB11D3FBF6627782F97
:100D9000892F9A2F620F711D811D911D42E0660FF0
:100DA000771F881F991F4A95D1F70895CF92DF9238
:100DB000EF92FF92CF93DF936B017C01D4DFEB01C5
:100DC000C114D104E104F10479F02CD1CCDF6C1B07
:100DD0007D0B683E7340A0F381E0C81AD108E1089A
:100DE000F108C851DC4FECCFDF91CF91FF90EF902D
:100DF000DF90CF900895789484B5826084BD84B5E7
:100E0000816084BD85B5826085BD85B5816085BD05
:100E1000EEE6F0E0808181608083E1E8F0E010821E
:100E2000808182608083808181608083E0E8F0E05F
:100E3000808181608083E1EBF0E080818460808349
:100E4000E0EBF0E0808181608083EAE7F0E0808180
:100E500084608083808182608083808181608083E0
:100E60008081806880831092C10008958E3008F0E0
:100E70008E5087702091050190E4299F90011124E4
:100E8000822B80937C0080917A00806480937A002A
:100E900080917A0086FDFCCF8091780020917900C6
:100EA00090E0922B0895833081F028F4813099F0FE
:100EB0008230A1F008958730A9F08830B9F08430ED
:100EC000D1F4809180008F7D03C0809180008F7766
:100ED00080938000089584B58F7702C084B58F7D9C
:100EE00084BD08958091B0008F7703C08091B000D9
:100EF0008F7D8093B0000895CF93DF9390E0FC0145
:100F0000E458FF4F2491FC01E057FF4F8491882360
:100F100049F190E0880F991FFC01E854FF4FA5911B
:100F2000B49182559F4FFC01C591D4919FB7611137
:100F300008C0F8948C91209582238C938881822319
:100F40000AC0623051F4F8948C91322F309583238B
:100F50008C938881822B888304C0F8948C91822B97
:100F60008C939FBFDF91CF9108950F931F93CF93E1
:100F7000DF931F92CDB7DEB7282F30E0F901E85993
:100F8000FF4F8491F901E458FF4F1491F901E057A4
:100F9000FF4F04910023C1F0882319F0698383DF98
:100FA0006981E02FF0E0EE0FFF1FE255FF4FA591A2
:100FB000B4919FB7F8948C91611103C0109581236F
:100FC00001C0812B8C939FBF0F90DF91CF911F9118
:100FD0000F910895CF93DF93282F30E0F901E8595E
:100FE000FF4F8491F901E458FF4FD491F901E05784
:100FF000FF4FC491CC2389F0811155DFEC2FF0E035
:10100000EE0FFF1FEC55FF4FA591B4912C912D23AE
:1010100081E090E021F480E002C080E090E0DF9188
:10102000CF9108950895A1E21A2EAA1BBB1BFD01C2
:101030000DC0AA1FBB1FEE1FFF1FA217B307E407B7
:10104000F50720F0A21BB30BE40BF50B661F771F0F
:10105000881F991F1A9469F76095709580959095EF
:101060009B01AC01BD01CF010895EE0FFF1F05905C
:0A107000F491E02D0994F894FFCFED
:10107A00630C20183C014343442053656E73696E28
:10108A00672056616C7565202831304B6F686D2971
:10109A00203D200042726967687420446967697458
:1010AA00616C2076616C7565203D2000202020420D
:1010BA007269676874207374617465203D3D20000D
:1010CA002020204461726B205374617465203D3D79
:1010DA0020006265666F7265207374617465203AD8
:1010EA002000536C656570206D6F646520427269DB
:1010FA0067687400536C656570206D6F6465204481
:10110A0061726B00476574204461726B6564205498
:10111A0075726E206F6E204C4544002070757420E5
:10112A00646174652059592D4D4D2D44442D5454F4
:10113A002D6D6D20284E6F206C696E6520656E647A
:10114A00696E67206D646F65293A20002D2D2D0088
:10115A006572726F72207265747970652064617449
:10116A006520706C656173650054696D65207365EF
:10117A007420646F6E65202D20676F20746F207055
:10118A00726F6772616D00000000004A03B104CEFD
:08119A0002E702D9022903005B
:00000001FF
