:1000000062C000000C94F20B0C941F0C85C0000021
:1000100083C0000081C000007EC000007CC00000E2
:100020007AC0000078C0000076C0000074C00000F4
:1000300072C0000070C000006EC000006CC0000004
:100040000C94570C68C000000C94090A0C943B0AED
:1000500062C0000060C000005EC000005CC0000024
:100060005AC0000058C00000000000080002010053
:100070000003040700000000000000000102040863
:100080001020408001020408102001020408102002
:10009000040404040404040402020202020203032E
:1000A00003030303000000002300260029000000D2
:1000B0000000250028002B0000000000240027007D
:1000C0002A00B108690A11241FBECFEFD8E0DEBFB5
:1000D000CDBF13E0A0E0B1E0E4E0F6E202C005909D
:1000E0000D92A634B107D9F725E0A6E4B3E001C02C
:1000F0001D92A334B207E1F710E0C6ECD0E004C0D3
:100100002297FE010E948A0EC23CD107C9F70E94C5
:100110004D0C0C94001374CF1F920F920FB60F92D8
:1001200011242F933F934F935F936F937F938F93FC
:100130009F93AF93BF93EF93FF93E0918803F09168
:100140008903309709F449C0868DA685B78581FD5E
:1001500055C08C919585892309F03FC0A389B48946
:100160009C918589809589238C93868997890197AD
:10017000F1F7208D318DA685B785758558E060E053
:10018000C9010197F1F7862F90E095958795682F23
:100190004C91472309F06068515091F7868D81FD9D
:1001A00033C08091470390E001968F739927209187
:1001B0004603281759F1A0914703B0E0A85BBC4F54
:1001C0006C9380934703828D938D0197F1F7A389F8
:1001D000B4898C919589892B8C93FF91EF91BF9174
:1001E000AF919F918F917F916F915F914F913F91CF
:1001F0002F910F900FBE0F901F9018958C919585A1
:10020000892309F0ABCFE9CF6095CBCF868D816094
:10021000868FD9CFFC018FEF9FEF938382832EE5EA
:1002200031E0358324832AE030E03783268321E0E0
:100230002087918380838CE390E0909301018093E9
:1002400000011092600410926104109262041092F6
:1002500063040895FC01778366830895FC01862F6B
:100260006283738361E00C94570DFC01808191815E
:100270008F3FFFEF9F0791F010926004109261048E
:10028000109262041092630410925F0410925E0454
:1002900041E050E064E776E00C94C20B0895BF9211
:1002A000CF92DF92EF92FF920F931F93CF93DF9342
:1002B000EC017B016A01088119818A819B818F3F52
:1002C0002FEF920709F43EC00F3F3FEF130709F4E9
:1002D00043C0802F0E94E20B8FEF9FEF99838883AA
:1002E0008A819B81BB24B39461E00E94900D8C8134
:1002F0009D819C01E29EC001E39E900DF29E900DB7
:1003000011240E94E90C60E08A810E94900D8C818A
:100310009D819C01C29EC001C39E900DD29E900DF6
:1003200011240E94E90CBB2069F019830883CE01D7
:10033000DF91CF911F910F91FF90EF90DF90CF90C1
:10034000BF9093CFDF91CF911F910F91FF90EF90CE
:10035000DF90CF90BF900895B12CC6CFFC012085CF
:10036000213051F0223069F0233009F008954BE03C
:1003700050E064E070E093CF43E050E061E070E073
:100380008ECF42E050E061E070E089CFFC01208533
:10039000213051F0223069F0233009F0089546E011
:1003A00050E069E070E07BCF41E050E063E070E056
:1003B00076CF41E050E062E070E071CFFC01208533
:1003C000213051F0223069F0233009F0089547E4DC
:1003D00050E061E070E063CF4FE150E061E070E039
:1003E0005ECF4AE050E061E070E059CFAF92BF923B
:1003F000CF92DF92EF92FF920F931F93CF93DF93F1
:100400008C016B01FC0186819781181619062CF569
:10041000E12CF12C5B01FFEFAF1ABF0AF6018081DE
:10042000882381F0E50107C0813311F4C801AEDFF4
:100430008991882339F08033B9F7C8018FDF89911A
:100440008111F9CFC801BADF8FEFE81AF80AF80175
:1004500086819781E816F9060CF3DF91CF911F9101
:100460000F91FF90EF90DF90CF90BF90AF900895E5
:100470004F925F926F927F928F929F92AF92BF92B4
:10048000CF92DF92EF92FF920F931F93CF93DF9360
:10049000CDB7DEB760970FB6F894DEBF0FBECDBF05
:1004A0005C018090D4039090D5039401A3E4B8E05C
:1004B0000E948E0E881A990A96948794880E991E27
:1004C000929482947FE08722892497228924640170
:1004D000E12CF12CA0910001B091010194010E9446
:1004E0009D0E0E94460F2AE037ED43E25CE30E9436
:1004F000D40F0E941A0F22E0A216B10408F4F4C02F
:10050000A7019601261B370B480B590B2D873E87F9
:100510004F87588B26013701440C551C661C771CED
:100520004C0C5D1C6E1C7F1CA3019201261B370B1B
:10053000480B590B29873A874B875C879B01AC0195
:10054000240D351D461D571D2D833E834F8358872F
:10055000E1E0F0E0412C512C32019B01AC012C0D6B
:100560003D1D4E1D5F1D29833A834B835C837301C0
:1005700062010D851E852F8538892EC089819A815B
:10058000AB81BC81481659066A067B06A0F5DF01DF
:10059000AA0FBB1FAA52BC4F6D917C91AB0160E0CA
:1005A00070E089859A85AB85BC8584179507A60779
:1005B000B70708F58D819E81AF81B8854817590727
:1005C0006A077B07C0F4CC0CDD1CEE1CFF1C3296C6
:1005D000EA15FB0508F047C0DF01AA0FBB1FAC52AC
:1005E000BC4F4D915C912A01612C712C04151505AD
:1005F0002605370518F289859A85AB85BC85841553
:100600009505A605B70530F58D819E81AF81B8852A
:10061000481659066A067B06E8F4DF01AA0FBB1FDD
:10062000AA52BC4F4D915C9160E070E00417150731
:100630002607370778F489819A81AB81BC814817F6
:1006400059076A077B0730F49FEFC91AD90AE90AEC
:10065000F90AB9CFF501C12CD12C76013296EA15F1
:10066000FB0508F4B9CFD701C601B695A7959795B4
:10067000879541E00097A105B105A1F1E7E0AE162D
:10068000B104C0F08093600490936104A09362046D
:10069000B0936304B694A794B0925F04A0925E04F2
:1006A00090925D0480925C0421E030E030935B0422
:1006B00020935A04842F60960FB6F894DEBF0FBEC5
:1006C000CDBFDF91CF911F910F91FF90EF90DF9001
:1006D000CF90BF90AF909F908F907F906F905F90E2
:1006E0004F90089540E0CACF40E0E4CF4F925F9230
:1006F0006F927F928F929F92AF92BF92CF92DF9232
:10070000EF92FF920F931F93CF93DF93CDB7DEB796
:1007100064970FB6F894DEBF0FBECDBF5C01209189
:10072000D4033091D503ADECBCEC0E948E0E4C018D
:100730009694879496948794969487946401E12C78
:10074000F12CA0910001B091010194010E949D0E35
:100750000E94460F2AE037ED43E25CE30E94D40F8B
:100760000E941A0F22E0A216B10408F407C1A701E3
:100770009601261B370B480B590B2D873E874F8759
:10078000588B26013701440C551C661C771CA301AD
:100790009201261B370B480B590B29873A874B8749
:1007A0005C879B01AC01240D351D461D571D298317
:1007B0003A834B835C8361E070E080E090E0DC0191
:1007C0002C193D094E095F092D833E834F835887BD
:1007D000898B9A8BAB8BBC8BFB010D851E852F857E
:1007E0003889C984DA84EB84FC8432C08D819E818F
:1007F000AF81B885481659066A067B06C8F5DF0141
:10080000AA0FBB1FAA52BC4F6D917C91AB0160E057
:1008100070E0C416D506E606F70650F589819A8180
:10082000AB81BC81481759076A077B0708F589899E
:100830009A89AB89BC89880F991FAA1FBB1F898B16
:100840009A8BAB8BBC8B3296EA15FB0508F04DC03A
:10085000DF01AA0FBB1FAC52BC4F4D915C912A0126
:10086000612C712C041515052605370508F4BECF3B
:10087000C414D504E604F70408F078C089819A818D
:10088000AB81BC81481659066A067B0608F06EC02B
:10089000DF01AA0FBB1FAA52BC4F4D915C9160E0D3
:1008A00070E0041715072607370708F05FC08D8131
:1008B0009E81AF81B885481759076A077B0708F002
:1008C00055C089899A89AB89BC890196A11DB11D42
:1008D000880F991FAA1FBB1F898B9A8BAB8BBC8B70
:1008E0003296EA15FB0508F4B3CF89899A89AB895A
:1008F000BC89B695A7959795879541E00097A10586
:10090000B105D1F1E7E0AE16B104C0F08093600408
:1009100090936104A0936204B0936304B694A79487
:10092000B0925F04A0925E0490925D0480925C0499
:1009300022E030E030935B0420935A04842F6496C5
:100940000FB6F894DEBF0FBECDBFDF91CF911F91E0
:100950000F91FF90EF90DF90CF90BF90AF909F905E
:100960008F907F906F905F904F900895F501198A56
:100970001A8A1B8A1C8A67CF40E0C4CF40E0DECFD2
:100980002F923F924F925F926F927F928F929F929F
:10099000AF92BF92CF92DF92EF92FF920F931F938D
:1009A000CF93DF93CDB7DEB7A6970FB6F894DEBF2F
:1009B0000FBECDBF9AA389A32091D4033091D50354
:1009C000A3ECB6EE0E948E0E1C010024220C331CF8
:1009D000001C220C331C001C232C302CA091000185
:1009E000B091010191010E949D0E0E94460F2AE0E4
:1009F00037ED43E25CE30E94D40F0E941A0F09A175
:100A00001AA10230110508F46DC16101E12CF12C2D
:100A1000A7019601220F331F441F551F220F331FBA
:100A2000441F551F29833A834B835C83261B370B56
:100A3000480B590B2D8F3E8F4F8F58A346015701FE
:100A4000880C991CAA1CBB1C24013501440C551CA4
:100A5000661C771C440C551C661C771C480C591CE2
:100A60006A1C7B1C4C0C5D1C6E1C7F1C930182015C
:100A7000061B170B280B390B09871A872B873C8716
:100A80009B01AC01240D351D461D571D298B3A8B4A
:100A90004B8B5C8B24013501440C551C661C771C68
:100AA000440C551C661C771C4C0C5D1C6E1C7F1C7A
:100AB00093018201061B170B280B390B098F1A8F24
:100AC0002B8F3C8F9B01AC01240D351D461D571DFE
:100AD0002D833E834F835887C80CD91CEA1CFB1C0E
:100AE000CC0CDD1CEE1CFF1C26013701461A570AF0
:100AF000680A790A4D865E866F86788A8B019C012A
:100B00000C0D1D1D2E1D3F1D0D8B1E8B2F8B388F29
:100B100041E050E0C12CD12C760149805A806B8095
:100B20007C80460E571E681E791ED701C601C98CEF
:100B3000DA8CEB8CFC8CCBA2DCA2EDA2FEA20D8D9C
:100B40001E8D2F8D38A149825A826B827C8236C0DD
:100B500049805A806B807C8084149504A604B70475
:100B6000E8F5FA01EE0FFF1FEA52FC4F0190F08109
:100B7000E02D6F01E12CF12CC98EDA8EEB8EFC8E0C
:100B800049845A846B847C844C145D046E047F0415
:100B900028F549885A886B887C88C414D504E604F3
:100BA000F704E0F4880F991FAA1FBB1F4E5F5F4F29
:100BB00069A07AA04615570508F04FC0FA01EE0F5C
:100BC000FF1FEC52FC4F608171814B01A12CB12CB5
:100BD000081519052A053B0508F4BACFCBA0DCA0FF
:100BE000EDA0FEA0C814D904EA04FB0448F54D802A
:100BF0005E806F80788484149504A604B70400F5A1
:100C0000FA01EE0FFF1FEA52FC4F608171814B0128
:100C1000A12CB12CCD84DE84EF84F888C814D904CB
:100C2000EA04FB0468F44D885E886F88788C84142D
:100C30009504A604B70420F40196A11DB11DB2CFFE
:100C400049A15AA180E090E0DC014E5F5F4F69A0AE
:100C50007AA04615570508F4B1CFAC01BD017695D1
:100C600067955795479581E04115510561057105D7
:100C7000B9F109A11AA107301105C8F04093600429
:100C800050936104609362047093630498013695F5
:100C9000279530935F0420935E0430925D04209288
:100CA0005C0423E030E030935B0420935A04A69662
:100CB0000FB6F894DEBF0FBECDBFDF91CF911F916D
:100CC0000F91FF90EF90DF90CF90BF90AF909F90EB
:100CD0008F907F906F905F904F903F902F900895EE
:100CE00080E0C7CF80E0E3CFCF92DF92EF92FF9218
:100CF0000F931F93CF93DF9324D66B017C018091D8
:100D0000D0039091D103E601C81BD90BD093CF0338
:100D1000C093CE03C93883E1D80758F5E091CA03E0
:100D2000F091CB03E334F10508F455C01092CD03E4
:100D30001092CC0381E090E0E0E0F0E09093CB03F0
:100D40008093CA03EE0FFF1FEC52FC4FD183C08388
:100D5000C092D003D092D103E092D203F092D30399
:100D6000DF91CF911F910F91FF90EF90DF90CF9087
:100D700008958091D4039091D5039C01285C31099A
:100D80002C173D07B8F688539F4FC817D90790F620
:100D90002091CC033091CD032F5F3F4F3093CD0393
:100DA0002093CC030091CA031091CB030150110989
:100DB0001093CB030093CA032230310509F0BACF58
:100DC000C80156DB8111B2CFC80190DC8111AECFD2
:100DD000C801D6DDABCFCF010196B0CF611571054B
:100DE00081059105A9F0AAEAB3E0E0E0F0E00BC0CC
:100DF00031E33D93969587957795679561157105D4
:100E00008105910539F0319660FDF2CF322FF1CF97
:100E1000E0E0F0E041155105E9F0BA016E1B7F0BEF
:100E2000DA01A755BC4FEAE8F3E080E090E008C0A3
:100E30003C9130830196119731968417950751F0B4
:100E400086179707A8F72083019611973196841784
:100E50009507B1F7FA01E657FC4F10828AE893E054
:100E60000895CF93DF93EC01CB01BA01A90120E3F0
:100E7000B5DFBC01CE01DF91CF91B8CAEF92FF92EE
:100E80000F931F93CF93DF93CDB7DEB7C055D10932
:100E90000FB6F894DEBF0FBECDBF6B96EEACFFACC5
:100EA0006B979E01235A3F4F6D964EAD5FAD6D9788
:100EB00060E570E0CE0101960E9437108981882399
:100EC000F9F08E010F5F1F4F0FC0D701ED91FC911C
:100ED0000190F081E02DD8016D918D01C701099538
:100EE000F8018081882361F08A3079F7D701ED918C
:100EF000FC910190F081E02D6DE0C7010995E5CFEF
:100F0000C05BDF4F0FB6F894DEBF0FBECDBFDF91E1
:100F1000CF911F910F91FF90EF90089561E084E0D1
:100F2000C6D561E085E0C3D561E086E0C0D561E06B
:100F300087E0BDC5EF92FF920F931F93CF93DF938E
:100F4000EC01062FE72E142FF52E1B821A82198230
:100F500018820496E3DF26E040E855E260E070E0A6
:100F600089E994E0F6D160E0802FA1D560E0812F7F
:100F70009ED5098BEA8A1F87F88A1C861B861E86E7
:100F80001D861E821D8218861F821A861986DF9191
:100F9000CF911F910F91FF90EF900895CF93DF9322
:100FA000EC0138D926E040E855E260E070E089E9DC
:100FB00094E0CFD16AE070E0CE0150D968E070E0F3
:100FC000CE01DF91CF9146C9462F552747FD509559
:100FD000652F752F28E030E044DF61E084E0A0D584
:100FE00064EF71E080E090E0CFD460E084E098C5E9
:100FF0000F931F93CF93DF931F92CDB7DEB78C0172
:10100000862F61E0498353D560E04981842F4FD515
:1010100086E0F80111928A95E9F70F90DF91CF9160
:101020001F910F91089560E08CE07AD582E090E006
:10103000D0D461E08CE074D58AE090E0CAD460E05E
:101040008CE06EC520E432E44FE050E061E08DE0DA
:101050009CD597FD0BC0959587957795679518D783
:101060002DEC3CEC48EE51E478D6DFC66F5F7F4F45
:101070008F4F9F4FF0CFCF92DF92EF92FF92CF939F
:10108000DF93EC017C018CE1E80EF11CC701CBDFA2
:1010900081E090E09ED4C701D5DF7D8F6C8F8827DB
:1010A00077FD8095982F23E030E040E050E014D6A3
:1010B00069017A01293C3105410551050CF03BC01D
:1010C000283731054105510594F06EEB72E089E94E
:1010D00094E080D22AE030E0B701A60189E994E0EB
:1010E000DF91CF91FF90EF90DF90CF903BC368E905
:1010F00072E089E994E088D261E6CE0165DFFF9273
:10110000EF92DF92CF9280EB92E09F938F9389E9E9
:1011100094E09F938F93B2DE8DB79EB708960FB67B
:10112000F8949EBF0FBE8DBFDF91CF91FF90EF90DF
:10113000DF90CF90089567E872E089E994E0DF914D
:10114000CF91FF90EF90DF90CF905EC226E040E815
:1011500055E260E070E089E994E0FBC087E794E045
:101160008ACF87E794E01ADF42E050E060E070E069
:1011700080E894E0DFDE4DE050E06CE070E083E971
:1011800094E036DF42E050E060E070E084E694E016
:10119000D1CEFC01818D228D90E0805C9F4F821B1F
:1011A00091098F7399270895FC01918D828D98176D
:1011B00031F0828DE80FF11D858D90E008958FEF5D
:1011C0009FEF0895FC01918D828D981761F0828DBB
:1011D000DF01A80FB11D5D968C91928D9F5F9F736B
:1011E000928F90E008958FEF9FEF089580E69AE048
:1011F000892B41F080E090E0892B21F061D18111B1
:101200000C9400000895FC01848DDF01A80FB11D2E
:10121000A35ABF4F2C91848D90E001968F7399272C
:10122000848FA689B7892C93A089B1898C91806419
:101230008C93938D848D981306C00288F389E02DDA
:1012400080818F7D80830895CF93DF93EC01888D1B
:101250008823C1F0EA89FB89808185FD05C0A889C2
:10126000B9898C9186FD0EC00FB607FCF5CF808141
:1012700085FFF2CFA889B9898C9185FFEDCFCE018A
:10128000C2DFE8CFDF91CF910895CF92DF92FF9236
:101290000F931F93CF93DF931F92CDB7DEB76C01EF
:1012A000DC015B969C915B975C968C915C979813A4
:1012B00007C05096ED91FC915197808185FD31C01A
:1012C000F601038D10E00F5F1F4F0F731127F02EF3
:1012D000F601848DF81210C00FB607FCF9CFD601C5
:1012E0005096ED91FC915197808185FFF1CFC60119
:1012F000698389DF6981ECCF838DE80FF11DE35AA3
:10130000FF4F6083D6015B960C935B975296ED91ED
:10131000FC91539780818062808381E058968C9302
:101320000DC0D6015696ED91FC915797608350966B
:10133000ED91FC91519780818064808381E090E001
:101340000F90DF91CF911F910F91FF90DF90CF9081
:101350000895BF92CF92DF92EF92FF92CF93DF93E7
:10136000EC016A017B01B22EE889F98982E0808371
:10137000411581EE58076105710599F060E079E04B
:101380008DE390E0A701960185D4215031094109F0
:1013900051095695479537952795211580E13807CE
:1013A00090F0E889F989108260E874E88EE190E0B5
:1013B000A70196016FD42150310941095109569571
:1013C000479537952795EC85FD853083EE85FF851C
:1013D0002083188EEC89FD89B082EA89FB8980819F
:1013E00080618083EA89FB89808188608083EA89C3
:1013F000FB89808180688083EA89FB8980818F7D79
:101400008083DF91CF91FF90EF90DF90CF90BF90DE
:1014100008951F920F920FB60F9211242F938F935E
:101420009F93EF93FF93E091A904F091AA04808128
:10143000E091AF04F091B00482FD12C090818091E0
:10144000B2048F5F8F732091B304821751F0E09143
:10145000B204F0E0E756FB4F958F8093B20401C0D1
:101460008081FF91EF919F918F912F910F900FBEEF
:101470000F901F9018951F920F920FB60F92112484
:101480002F933F934F935F936F937F938F939F938C
:10149000AF93BF93EF93FF9389E994E0B4DEFF919C
:1014A000EF91BF91AF919F918F917F916F915F91DC
:1014B0004F913F912F910F900FBE0F901F90189555
:1014C00089E994E066DE21E0892B09F420E0822F8F
:1014D000089510929C0410929B0488EE93E0A0E083
:1014E000B0E080939D0490939E04A0939F04B093DA
:1014F000A0048AE393E090939A048093990485EC86
:1015000090E09093A6048093A50484EC90E09093DF
:10151000A8048093A70480EC90E09093AA048093A1
:10152000A90481EC90E09093AC048093AB0482EC2E
:1015300090E09093AE048093AD0486EC90E090939D
:10154000B0048093AF041092B2041092B3041092CE
:10155000B4041092B5040895CF92DF92EF92FF92F7
:101560000F931F93CF93DF936C017A01EB01E60E8B
:10157000F71E00E010E0CE15DF0561F06991D6019D
:10158000ED91FC910190F081E02DC6010995080FC5
:10159000191FF1CFC801DF91CF911F910F91FF90DB
:1015A000EF90DF90CF9008956115710581F0DB0118
:1015B0000D900020E9F7AD0141505109461B570B32
:1015C000DC01ED91FC910280F381E02D099480E033
:1015D00090E00895E9CFDC01ED91FC910190F0815C
:1015E000E02D09940F931F93CF93DF93EC016DE0EF
:1015F000F2DF8C016AE0CE01EEDF800F911FDF91F8
:10160000CF911F910F9108950F931F93CF93DF9365
:10161000EC01CADF8C01CE01E5DF800F911FDF9165
:10162000CF911F910F9108958F929F92AF92BF9289
:10163000CF92DF92EF92FF920F931F93CF93DF939E
:10164000CDB7DEB7A1970FB6F894DEBF0FBECDBF02
:101650007C01C42EE52FCB01D22E19A221E02D153D
:1016600010F02AE0D22E8E010F5D1F4F8D2C912C91
:10167000A12CB12C6C2D7E2FA50194010BD38C2DA8
:10168000D29E80191124015011098A3014F4805D12
:1016900001C0895CF80180832115310541055105A0
:1016A00021F0C22EE32FCA01E5CFB801C7017CDFCC
:1016B000A1960FB6F894DEBF0FBECDBFDF91CF91DC
:1016C0001F910F91FF90EF90DF90CF90BF90AF9060
:1016D0009F908F900895CF92DF92EF92FF920F9399
:1016E0001F93CF93DF93EC016A017B012115310534
:1016F00079F4E881F9810190F081E02D642FDF9188
:10170000CF911F910F91FF90EF90DF90CF900994B0
:101710002A303105D9F477FF18C06DE25CDF8C0107
:1017200044275527BA014C195D096E097F092AE043
:10173000CE017ADF800F911FDF91CF911F910F9122
:10174000FF90EF90DF90CF9008952AE0B701A601B7
:10175000CE01DF91CF911F910F91FF90EF90DF901D
:10176000CF9062CF0F931F93CF93DF93EC01B3DF42
:101770008C01CE0137DF800F911FDF91CF911F9138
:101780000F9108958230E8F4E82FF0E0EE0FFF1F8C
:10179000EA5CFA4F71836083813041F08091690087
:1017A0008C7F842B80936900E89A0895809169006A
:1017B000440F551F440F551F837F842B809369006E
:1017C000E99A0895823068F4813011F0E89801C0F8
:1017D000E998E82FF0E0EE0FFF1FEA5CFA4F118264
:1017E000108208951F920F920FB60F9211242F931B
:1017F0003F934F935F936F937F938F939F93AF9399
:10180000BF93EF93FF938091360590913705892B15
:1018100029F0E0913605F09137050995FF91EF9198
:10182000BF91AF919F918F917F916F915F914F91F8
:101830003F912F910F900FBE0F901F9018951F9200
:101840000F920FB60F9211242F933F934F935F93F4
:101850006F937F938F939F93AF93BF93EF93FF9378
:101860008091380590913905892B29F0E091380550
:10187000F09139050995FF91EF91BF91AF919F913B
:101880008F917F916F915F914F913F912F910F9029
:101890000FBE0F901F9018950895A5D0FDDF56DC60
:1018A000C6EFD8E05BDC2097E9F3A0DCFBCF1F920A
:1018B0000F920FB60F9211242F933F938F939F9304
:1018C000AF93BF9380913B0590913C05A0913D055E
:1018D000B0913E0530913A0523E0230F2D3720F4D7
:1018E0000196A11DB11D05C026E8230F0296A11D7A
:1018F000B11D20933A0580933B0590933C05A0933E
:101900003D05B0933E0580913F0590914005A09123
:101910004105B09142050196A11DB11D80933F057F
:1019200090934005A0934105B0934205BF91AF91BC
:101930009F918F913F912F910F900FBE0F901F900D
:1019400018953FB7F89480913F0590914005A0917C
:101950004105B091420526B5A89B05C02F3F19F05F
:101960000196A11DB11D3FBF6627782F892F9A2FA1
:10197000620F711D811D911D42E0660F771F881F48
:10198000991F4A95D1F70895CF92DF92EF92FF9277
:10199000CF93DF936B017C01D4DFEB01C114D10441
:1019A000E104F10479F075D1CCDF6C1B7D0B683E4E
:1019B0007340A0F381E0C81AD108E108F108C851CA
:1019C000DC4FECCFDF91CF91FF90EF90DF90CF9085
:1019D0000895019739F0880F991F880F991F029772
:1019E0000197F1F70895789484B5826084BD84B539
:1019F000816084BD85B5826085BD85B5816085BD0A
:101A0000EEE6F0E0808181608083E1E8F0E0108222
:101A1000808182608083808181608083E0E8F0E063
:101A2000808181608083E1EBF0E08081846080834D
:101A3000E0EBF0E0808181608083EAE7F0E0808184
:101A400084608083808182608083808181608083E4
:101A50008081806880831092C1000895833081F076
:101A600028F4813099F08230A1F008958730A9F0F0
:101A70008830B9F08430D1F4809180008F7D03C02C
:101A8000809180008F7780938000089584B58F7750
:101A900002C084B58F7D84BD08958091B0008F779A
:101AA00003C08091B0008F7D8093B0000895CF93E4
:101AB000DF9390E0FC01E458FF4F2491FC01E057D4
:101AC000FF4F8491882349F190E0880F991FFC0112
:101AD000E854FF4FA591B49182559F4FFC01C591E9
:101AE000D4919FB7611108C0F8948C9120958223FE
:101AF0008C93888182230AC0623051F4F8948C91CF
:101B0000322F309583238C938881822B888304C065
:101B1000F8948C91822B8C939FBFDF91CF91089585
:101B20000F931F93CF93DF931F92CDB7DEB7282F6C
:101B300030E0F901E859FF4F8491F901E458FF4F73
:101B40001491F901E057FF4F04910023C1F088235D
:101B500019F0698383DF6981E02FF0E0EE0FFF1F4A
:101B6000E255FF4FA591B4919FB7F8948C91611104
:101B700003C01095812301C0812B8C939FBF0F90D0
:101B8000DF91CF911F910F910895CF92DF92EF9245
:101B9000FF920F931F93CF93DF9390E0FC01E458E3
:101BA000FF4FD491FC01E057FF4F7491611102C0C7
:101BB000C0E001C0CD2FDA01C901BF70672F70E00E
:101BC000660F771F6C557F4F00E010E09801FB0116
:101BD000E590F490F70140814D234C131EC068013D
:101BE00079014FEFC41AD40AE40AF40A0817190756
:101BF0002A073B0709F441C097018601E8CF680135
:101C00007901FFEFCF1ADF0AEF0AFF0A0817190759
:101C10002A073B0791F197018601FB01E590F490BB
:101C2000F70140814D234C13EACF801B910BA20B8F
:101C3000B30B20E030E0A901FB01E590F490F7013F
:101C4000F080FD22FC120AC0281739074A075B07FB
:101C5000A1F02F5F3F4F4F4F5F4FEECFA8E1B0E0B5
:101C600072D0605F7F4F8F4F9F4F24E0969587958E
:101C7000779567952A95D1F703C060E070E0CB01B6
:101C8000DF91CF911F910F91FF90EF90DF90CF9058
:101C900008950895A1E21A2EAA1BBB1BFD010DC0D9
:101CA000AA1FBB1FEE1FFF1FA217B307E407F5070C
:101CB00020F0A21BB30BE40BF50B661F771F881FE8
:101CC000991F1A9469F760957095809590959B017E
:101CD000AC01BD01CF010895052E97FB16F40094C9
:101CE0000FD057FD05D0D6DF07FC02D046F408C060
:101CF00050954095309521953F4F4F4F5F4F089538
:101D000090958095709561957F4F8F4F9F4F089567
:101D1000EE0FFF1F0590F491E02D0994A29FB001F2
:101D2000B39FC001A39F700D811D1124911DB29F0F
:101D3000700D811D1124911D0895F0DFB7FF0895E6
:101D4000821B930B0895EADFA59F900DB49F900D21
:101D5000A49F800D911D112408950CD0EBC0E3D0F9
:101D600040F0DAD030F021F45F3F19F0CCC05111CF
:101D700015C1CFC0F0D098F39923C9F35523B1F31F
:101D8000951B550BBB27AA2762177307840738F0EA
:101D90009F5F5F4F220F331F441FAA1FA9F333D049
:101DA0000E2E3AF0E0E830D091505040E695001CFD
:101DB000CAF729D0FE2F27D0660F771F881FBB1FB9
:101DC000261737074807AB07B0E809F0BB0B802D93
:101DD000BF01FF2793585F4F2AF09E3F510568F0DF
:101DE00092C0DCC05F3FECF3983EDCF386957795BC
:101DF0006795B795F7959F5FC9F7880F911D9695E1
:101E0000879597F90895E1E0660F771F881FBB1F3C
:101E1000621773078407BA0720F0621B730B840BE9
:101E2000BA0BEE1F88F7E095089504D06894B111BD
:101E3000B5C0089598D088F09F5790F0B92F992792
:101E4000B751A0F0D1F0660F771F881F991F1AF0C5
:101E5000BA95C9F712C0B13081F09FD0B1E00895B2
:101E60009CC0672F782F8827B85F39F0B93FCCF333
:101E7000869577956795B395D9F73EF490958095BB
:101E8000709561957F4F8F4F9F4F0895E89409C0DB
:101E900097FB3EF490958095709561957F4F8F4F9D
:101EA0009F4F9923A9F0F92F96E9BB279395F695B3
:101EB000879577956795B795F111F8CFFAF4BB0F31
:101EC00011F460FF1BC06F5F7F4F8F4F9F4F16C095
:101ED000882311F096E911C0772321F09EE8872F1F
:101EE000762F05C0662371F096E8862F70E060E0DB
:101EF0002AF09A95660F771F881FDAF7880F969554
:101F0000879597F9089597F99F6780E870E060E0FA
:101F100008959FEF80EC089500240A941616170682
:101F200018060906089500240A94121613061406CA
:101F300005060895092E0394000C11F4882352F02D
:101F4000BB0F40F4BF2B11F460FF04C06F5F7F4FE5
:101F50008F4F9F4F089557FD9058440F551F59F0CC
:101F60005F3F71F04795880F97FB991F61F09F3F86
:101F700079F087950895121613061406551FF2CFAF
:101F80004695F1DF08C0161617061806991FF1CFFF
:101F900086957105610508940895E894BB27662726
:101FA0007727CB0197F908950BD0C4CFB5DF28F080
:101FB000BADF18F0952309F0A6CFABCF1124EECFEE
:101FC000CADFA0F3959FD1F3950F50E0551F629F94
:101FD000F001729FBB27F00DB11D639FAA27F00D82
:101FE000B11DAA1F649F6627B00DA11D661F829FA9
:101FF0002227B00DA11D621F739FB00DA11D621F8E
:10200000839FA00D611D221F749F3327A00D611DAA
:10201000231F849F600D211D822F762F6A2F11248C
:102020009F5750408AF0E1F088234AF0EE0FFF1FDF
:10203000BB1F661F771F881F91505040A9F79E3F16
:10204000510570F060CFAACF5F3FECF3983EDCF310
:10205000869577956795B795F795E7959F5FC1F753
:10206000FE2B880F911D9695879597F90895AEE000
:10207000B0E0ECE3F0E19BC28C01CA0146E04C8386
:102080001A83098377FF02C060E070E8615071092C
:102090007E836D83A901BC01CE01019611D04D81D3
:1020A0005E8157FD0AC02F813885421753070CF413
:1020B0009A01F801E20FF31F10822E96E4E093C21A
:1020C000ACE0B0E0E5E6F0E164C27C016B018A01BE
:1020D000FC0117821682838181FFB0C1CE01019677
:1020E0004C01F7019381F60193FD859193FF819156
:1020F0006F01882309F49EC1853239F493FD8591DF
:1021000093FF81916F01853221F4B70190E0B1D145
:10211000E8CF512C312C20E02032A0F48B3269F032
:1021200030F4803259F0833269F420612CC08D3252
:1021300039F0803339F4216026C02260246023C046
:10214000286021C027FD27C030ED380F3A3078F4E1
:1021500026FF06C0FAE05F9E300D1124532E13C0F7
:102160008AE0389E300D1124332E20620CC08E324E
:1021700021F426FD5FC1206406C08C3611F420686E
:1021800002C0883641F4F60193FD859193FF819159
:102190006F018111C1CF982F9F7D9554933028F402
:1021A0000C5F1F4FFFE3F9830DC0833631F0833797
:1021B00071F0833509F057C021C0F801808189830F
:1021C0000E5F1F4F44244394512C540114C0380116
:1021D000F2E06F0E711CF801A080B18026FF03C0F1
:1021E000652D70E002C06FEF7FEFC5012C8736D1FF
:1021F0002C0183012C852F77222E16C03801F2E0A6
:102200006F0E711CF801A080B18026FF03C0652D00
:1022100070E002C06FEF7FEFC5012C8714D12C0155
:102220002C852068222E830123FC19C0832D90E089
:1022300048165906A0F4B70180E290E01AD13A940A
:10224000F5CFF50127FC859127FE81915F01B7014C
:1022500090E00FD131103A94F1E04F1A5108411437
:10226000510479F7DEC0843611F0893631F5F80172
:1022700027FF07C060817181828193810C5F1F4FAE
:1022800008C060817181882777FD8095982F0E5F47
:102290001F4F2F76B22E97FF09C0909580957095AD
:1022A00061957F4F8F4F9F4F2068B22E2AE030E01C
:1022B000A40111D1A82EA81843C0853729F42F7E78
:1022C000B22E2AE030E025C0F22FF97FBF2E8F36E4
:1022D000C1F018F4883579F0ADC0803719F088372F
:1022E00021F0A8C02F2F2061B22EB4FE0DC08B2D7F
:1022F0008460B82E09C024FF0AC09F2F9660B92EB3
:1023000006C028E030E005C020E130E002C020E156
:1023100032E0F801B7FE07C060817181828193814C
:102320000C5F1F4F06C06081718180E090E00E5FFE
:102330001F4FA401D0D0A82EA818FB2DFF77BF2EC9
:10234000B6FE0BC02B2D2E7FA51450F4B4FE0AC090
:10235000B2FC08C02B2D2E7E05C07A2C2B2D03C07D
:102360007A2C01C0752C24FF0DC0FE01EA0DF11D71
:102370008081803311F4297E09C022FF06C0739446
:10238000739404C0822F867809F0739423FD12C0E1
:1023900020FF06C05A2C731418F4530C5718732CD2
:1023A000731460F4B70180E290E02C8762D07394DC
:1023B0002C85F6CF731410F4371801C0312C24FF8C
:1023C00011C0B70180E390E02C8753D02C8522FF09
:1023D00016C021FF03C088E590E002C088E790E0C6
:1023E000B7010CC0822F867851F021FD02C080E237
:1023F00001C08BE227FD8DE2B70190E03AD0A51431
:1024000030F4B70180E390E034D05A94F8CFAA9426
:10241000F401EA0DF11D8081B70190E02AD0A110EE
:10242000F6CF332009F45DCEB70180E290E021D0F1
:102430003A94F7CFF7018681978102C08FEF9FEF23
:102440002C96E2E1C2C0FC01059061507040011081
:10245000D8F7809590958E0F9F1F0895FC016150CD
:10246000704001900110D8F7809590958E0F9F1FB6
:1024700008950F931F93CF93DF93182F092FEB012C
:102480008B8181FD03C08FEF9FEF20C082FF10C0C2
:102490004E815F812C813D81421753077CF4E88196
:1024A000F9819F012F5F3F4F39832883108306C036
:1024B000E885F985812F0995892B29F72E813F81A0
:1024C0002F5F3F4F3F832E83812F902FDF91CF913E
:1024D0001F910F910895FA01AA27283051F1203158
:1024E00081F1E8946F936E7F6E5F7F4F8F4F9F4FA8
:1024F000AF4FB1E03ED0B4E03CD0670F781F891FEA
:102500009A1FA11D680F791F8A1F911DA11D6A0FB7
:10251000711D811D911DA11D20D009F468943F916A
:102520002AE0269F11243019305D3193DEF6CF0169
:102530000895462F4770405D4193B3E00FD0C9F72F
:10254000F6CF462F4F70405D4A3318F0495D31FD9C
:102550004052419302D0A9F7EACFB4E0A6959795EF
:10256000879577956795BA95C9F7009761057105C5
:1025700008959B01AC010A2E06945795479537950F
:102580002795BA95C9F7620F731F841F951FA01D69
:1025900008952F923F924F925F926F927F928F9207
:1025A0009F92AF92BF92CF92DF92EF92FF920F93E2
:1025B0001F93CF93DF93CDB7DEB7CA1BDB0B0FB6EC
:1025C000F894DEBF0FBECDBF09942A8839884888A9
:1025D0005F846E847D848C849B84AA84B984C8843F
:1025E000DF80EE80FD800C811B81AA81B981CE0F36
:1025F000D11D0FB6F894DEBF0FBECDBFED0108951B
:04260000F894FFCF7C
:102604003C003D3D3D3D3D3D3D3D3D3D3D3D3D3D34
:102614003D3D3D3D3D3D73746172743D3D3D3D3DE9
:102624003D3D3D3D3D3D3D3D3D3D3D3D3D3D3D0013
:102634004343442053656E73696E672056616C751D
:1026440065202833304B6F686D29203D200042728D
:1026540069676874204469676974616C2076616C89
:102664007565203D20004272696768742073746147
:102674007465203D20002C204461726B20537461EA
:102684007465203D3D20006265666F726520737439
:10269400617465203A20003D3D3D3D3D3D3D3D3D5D
:1026A4003D3D3D3D3D3D3D3D3D3D3D3D3D656E64D6
:1026B4003D3D3D3D3D3D3D3D3D3D3D3D3D3D3D3D46
:1026C4003D3D3D3D3D3D005374617465204272695A
:1026D400676874005374617465204461726B656447
:1026E40000556E6B6E6F776E20656E636F64696EF6
:1026F4006700202F2000626974200050726F746F8D
:10270400636F6C3A20005369676E616C2052656395
:10271400656976656420004E6F7420646574656332
:10272400746564206461726B2073746174652073D2
:102734006F20676574206F75742066726F6D206CEE
:102744006F6F70202121005374617465204461729D
:102754006B00496E206576656E74207374617465D0
:1027640020546865726520776173206272696768B6
:1027740074207374617465204A757374206265668D
:102784006F7265200A0A006F7574206F662072618B
:102794006E6765202121210064697374616E63652D
:1027A400206C6F776572207468616E20313430005C
:1027B40064697374616E6365203D202564006469F7
:1027C4007374616E6365203D20002070757420640D
:1027D4006174652059592D4D4D2D44442D54542D6B
:1027E4006D6D20284E6F206C696E6520656E64697E
:1027F4006E67206D646F65293A20002D2D2D0065CC
:1028040072726F7220726574797065206461746588
:1028140020706C656173650054696D65207365741F
:1028240020646F6E65202D20676F20746F20707296
:102834006F6772616D00000000004509AC0AC908A9
:06284400E208D40824099B
:00000001FF
