:100000005DC0000082C40000ADC400007DC00000DF
:100010007BC0000079C0000076C0000074C0000002
:1000200072C0000070C000006EC000006CC0000014
:100030006AC0000068C0000066C0000064C0000024
:10004000C9C4000060C0000056C3000086C30000A1
:100050005AC0000058C0000056C0000054C0000044
:1000600052C0000050C00000000000080002010063
:100070000003040700000000000000000102040863
:100080001020408001020408102001020408102002
:10009000040404040404040402020202020203032E
:1000A0000303030300000000250028002B000000CC
:1000B0000000240027002A003402DB0311241FBEA5
:1000C000CFEFD8E0DEBFCDBF12E0A0E0B1E0ECE2C0
:1000D000FDE002C005900D92A439B107D9F723E0E5
:1000E000A4E9B2E001C01D92A539B207E1F710E022
:1000F000CCEBD0E003C02297FE0112D6C83BD1075B
:10010000D1F75ED411C67CCF1F920F920FB60F921B
:1001100011242F933F934F935F936F937F938F930C
:100120009F93AF93BF93EF93FF93E091D602F0912B
:10013000D702309709F449C0868DA685B78581FD21
:1001400055C08C919585892309F03FC0A389B48956
:100150009C918589809589238C93868997890197BD
:10016000F1F7208D318DA685B785758558E060E063
:10017000C9010197F1F7862F90E095958795682F33
:100180004C91472309F06068515091F7868D81FDAD
:1001900033C08091950290E001968F73992720914A
:1001A0009402281759F1A0919502B0E0AA56BD4FCC
:1001B0006C9380939502828D938D0197F1F7A389BB
:1001C000B4898C919589892B8C93FF91EF91BF9184
:1001D000AF919F918F917F916F915F914F913F91DF
:1001E0002F910F900FBE0F901F9018958C919585B1
:1001F000892309F0ABCFE9CF6095CBCF868D8160A5
:10020000868FD9CF61E084E0F8D461E085E0F5D451
:1002100061E086E0F2D461E087E0EFC4CF92DF9244
:10022000EF92FF920F931F93CF93DF938A011416DF
:1002300015064CF56B01EE24D7FCE094FE2CC0E0D3
:10024000D0E061E084E012D561E085E00FD561E0A7
:1002500086E00CD561E087E009D5C701B60127D457
:1002600060E084E003D560E085E000D560E086E0F2
:10027000FDD460E087E0FAD4C701B60118D4219616
:10028000C017D107F1F6DF91CF911F910F91FF9029
:10029000EF90DF90CF900895EF92FF920F931F930E
:1002A000CF93DF93EC01062FE72E142FF52E1B8240
:1002B0001A82198218820496A5DF26E040E855E2EA
:1002C00060E070E08BEE92E0B6D160E0802F95D4D4
:1002D00060E0812F92D4098BEA8A1F87F88A1C86F6
:1002E0001B861E861D861E821D8218861F821A8608
:1002F0001986DF91CF911F910F91FF90EF90089594
:10030000CF93DF93EC01898932D497FD4DC0959549
:1003100087959E838D83893C910534F5898927D4FF
:1003200097FD44C0959587959E838D8397FD12C058
:1003300089891DD497FD4AC0959587959E838D83A5
:10034000893C91053CF48D859E8501969E878D871D
:10035000069784F565E070E080E090E0A8D380E047
:1003600090E0DF91CF910895898901D497FD20C055
:10037000959587959E838D83843F91407CF68B85F0
:100380009C8501969C878B87069724F366EC71E029
:100390008BEE92E0AAD21C861B861E861D8682E00A
:1003A00090E0DF91CF9108950196B1CF0196BACF39
:1003B0000196DECF68ED71E08BEE92E096D21C865E
:1003C0001B861E861D8681E090E0CBCF0196B4CFC0
:1003D000CF93DF93EC0194DF29853A85232B51F4E9
:1003E0001816190654F481309105F9F021E030E037
:1003F0003A8729878230910549F00197D1F065E06D
:1004000070E080E090E0DF91CF9151C329853A857B
:1004100021303105A1F79A87898745E050E064EFE4
:1004200071E0CE010496FADEEACF82E090E09A878E
:10043000898789859A85029711F781E090E09A87EC
:10044000898742E050E060E777E1CE010496E6DE7E
:10045000D6CF26E040E855E260E070E08BEE92E017
:10046000EAC088ED92E0B4CF42E050E060E070E096
:1004700088ED92E011CFFC01818D228D90E0805CAF
:100480009F4F821B91098F7399270895FC01918DCD
:10049000828D981731F0828DE80FF11D858D90E0E7
:1004A00008958FEF9FEF0895FC01918D828D98172D
:1004B00061F0828DDF01A80FB11D5D968C91928D48
:1004C0009F5F9F73928F90E008958FEF9FEF089545
:1004D00082ED93E0892B41F080E090E0892B21F0C0
:1004E00061D181110C9400000895FC01848DDF011D
:1004F000A80FB11DA35ABF4F2C91848D90E0019697
:100500008F739927848FA689B7892C93A089B18985
:100510008C9180648C93938D848D981306C002888F
:10052000F389E02D80818F7D80830895CF93DF93C1
:10053000EC01888D8823C1F0EA89FB89808185FDE3
:1005400005C0A889B9898C9186FD0EC00FB607FC3D
:10055000F5CF808185FFF2CFA889B9898C9185FF7D
:10056000EDCFCE01C2DFE8CFDF91CF910895CF92DA
:10057000DF92FF920F931F93CF93DF931F92CDB71C
:10058000DEB76C01DC015B969C915B975C968C916D
:100590005C97981307C05096ED91FC91519780811C
:1005A00085FD31C0F601038D10E00F5F1F4F0F7303
:1005B0001127F02EF601848DF81210C00FB607FC3B
:1005C000F9CFD6015096ED91FC915197808185FF2E
:1005D000F1CFC601698389DF6981ECCF838DE80F94
:1005E000F11DE35AFF4F6083D6015B960C935B9736
:1005F0005296ED91FC91539780818062808381E0D7
:1006000058968C930DC0D6015696ED91FC91579754
:1006100060835096ED91FC91519780818064808336
:1006200081E090E00F90DF91CF911F910F91FF90AB
:10063000DF90CF900895BF92CF92DF92EF92FF921A
:10064000CF93DF93EC016A017B01B22EE889F9892F
:1006500082E08083411581EE58076105710599F0AC
:1006600060E079E08DE390E0A701960135D3215059
:100670003109410951095695479537952795211517
:1006800080E1380790F0E889F989108260E874E821
:100690008EE190E0A70196011FD321503109410955
:1006A00051095695479537952795EC85FD853083FB
:1006B000EE85FF852083188EEC89FD89B082EA895A
:1006C000FB89808180618083EA89FB8980818860E1
:1006D0008083EA89FB89808180688083EA89FB893D
:1006E00080818F7D8083DF91CF91FF90EF90DF90AD
:1006F000CF90BF9008951F920F920FB60F921124C2
:100700002F938F939F93EF93FF93E091FB02F091D0
:10071000FC028081E0910103F091020382FD12C08E
:100720009081809104038F5F8F732091050382175E
:1007300051F0E0910403F0E0E551FD4F958F809377
:10074000040301C08081FF91EF919F918F912F91C0
:100750000F900FBE0F901F9018951F920F920FB61B
:100760000F9211242F933F934F935F936F937F9337
:100770008F939F93AF93BF93EF93FF938BEE92E092
:10078000B4DEFF91EF91BF91AF919F918F917F91D7
:100790006F915F914F913F912F910F900FBE0F90EE
:1007A0001F9018958BEE92E066DE21E0892B09F40C
:1007B00020E0822F08951092EE021092ED0288EE52
:1007C00093E0A0E0B0E08093EF029093F002A0935A
:1007D000F102B093F20287E892E09093EC028093EA
:1007E000EB0285EC90E09093F8028093F70284ECA2
:1007F00090E09093FA028093F90280EC90E090935D
:10080000FC028093FB0281EC90E09093FE028093C7
:10081000FD0282EC90E0909300038093FF0286EC4F
:1008200090E09093020380930103109204031092CE
:10083000050310920603109207030895CF92DF92EA
:10084000EF92FF920F931F93CF93DF936C017A0186
:10085000EB01E60EF71E00E010E0CE15DF0561F0BB
:100860006991D601ED91FC910190F081E02DC601D6
:100870000995080F191FF1CFC801DF91CF911F9182
:100880000F91FF90EF90DF90CF9008956115710563
:1008900081F0DB010D900020E9F7AD0141505109D5
:1008A000461B570BDC01ED91FC910280F381E02D9A
:1008B000099480E090E00895DC01ED91FC910190B5
:1008C000F081E02D09940F931F93CF93DF93EC01F8
:1008D0006DE0F2DF8C016AE0CE01EEDF800F911F48
:1008E000DF91CF911F910F9108950F931F93CF9395
:1008F000DF93EC01CBDF8C01CE01E5DF800F911F90
:10090000DF91CF911F910F9108951F920F920FB613
:100910000F9211242F933F934F935F936F937F9385
:100920008F939F93AF93BF93EF93FF93809188032F
:1009300090918903892B29F0E0918803F091890334
:100940000995FF91EF91BF91AF919F918F917F9109
:100950006F915F914F913F912F910F900FBE0F902C
:100960001F9018951F920F920FB60F9211242F937C
:100970003F934F935F936F937F938F939F93AF9327
:10098000BF93EF93FF9380918A0390918B03892B00
:1009900029F0E0918A03F0918B030995FF91EF9183
:1009A000BF91AF919F918F917F916F915F914F9187
:1009B0003F912F910F900FBE0F901F9018950895A3
:1009C0009BD0FDDF46DDC8E6D2E04BDD2097E9F3A2
:1009D0007FDDFBCF1F920F920FB60F9211242F9342
:1009E0003F938F939F93AF93BF9380918D0390918B
:1009F0008E03A0918F03B091900330918C0323E07C
:100A0000230F2D3720F40196A11DB11D05C026E846
:100A1000230F0296A11DB11D20938C0380938D039B
:100A200090938E03A0938F03B093900380919103D2
:100A300090919203A0919303B09194030196A11D0C
:100A4000B11D8093910390939203A0939303B0936D
:100A50009403BF91AF919F918F913F912F910F90F0
:100A60000FBE0F901F9018953FB7F8948091910397
:100A700090919203A0919303B091940326B5A89B03
:100A800005C02F3F19F00196A11DB11D3FBF66277C
:100A9000782F892F9A2F620F711D811D911D42E0C1
:100AA000660F771F881F991F4A95D1F70895CF9237
:100AB000DF92EF92FF92CF93DF936B017C01D4DF43
:100AC000EB01C114D104E104F10479F004D1CCDFCD
:100AD0006C1B7D0B683E7340A0F381E0C81AD108FF
:100AE000E108F108C851DC4FECCFDF91CF91FF90C6
:100AF000EF90DF90CF900895789484B5826084BDA4
:100B000084B5816084BD85B5826085BD85B5816011
:100B100085BDEEE6F0E0808181608083E1E8F0E071
:100B20001082808182608083808181608083E0E8A0
:100B3000F0E0808181608083E1EBF0E0808184607F
:100B40008083E0EBF0E0808181608083EAE7F0E081
:100B500080818460808380818260808380818160E5
:100B600080838081806880831092C10008958E30D8
:100B700008F08E5087702091000190E4299F900129
:100B80001124822B80937C0080917A008064809372
:100B90007A0080917A0086FDFCCF809178002091C8
:100BA000790090E0922B0895833081F028F4813011
:100BB00099F08230A1F008958730A9F08830B9F01B
:100BC0008430D1F4809180008F7D03C080918000BB
:100BD0008F7780938000089584B58F7702C084B5A5
:100BE0008F7D84BD08958091B0008F7703C0809180
:100BF000B0008F7D8093B0000895CF93DF9390E095
:100C0000FC01E458FF4F2491FC01E057FF4F849111
:100C1000882349F190E0880F991FFC01E255FF4FAE
:100C2000A591B4918C559F4FFC01C591D4919FB76C
:100C3000611108C0F8948C91209582238C9388814F
:100C400082230AC0623051F4F8948C91322F30958F
:100C500083238C938881822B888304C0F8948C91A1
:100C6000822B8C939FBFDF91CF9108950F931F9399
:100C7000CF93DF931F92CDB7DEB7282F30E0F90175
:100C8000E859FF4F8491F901E458FF4F1491F9019D
:100C9000E057FF4F04910023C1F0882319F06983C6
:100CA00083DF6981E02FF0E0EE0FFF1FEC55FF4F6F
:100CB000A591B4919FB7F8948C91611103C01095E0
:100CC000812301C0812B8C939FBF0F90DF91CF9127
:100CD0001F910F9108950895A1E21A2EAA1BBB1B24
:100CE000FD010DC0AA1FBB1FEE1FFF1FA217B307F8
:100CF000E407F50720F0A21BB30BE40BF50B661F0E
:100D0000771F881F991F1A9469F7609570958095D1
:100D100090959B01AC01BD01CF010895EE0FFF1F1F
:0C0D20000590F491E02D0994F894FFCFA9
:100D2C00013D3D3D3D3D3D3D3D3D3D3D3D3D3D3D23
:100D3C003D3D3D3D3D73746172743D3D3D3D3D3DDA
:100D4C003D3D3D3D3D3D3D3D3D3D3D3D3D3D0043FE
:100D5C0043442053656E73696E672056616C7565EC
:100D6C00202833304B6F686D29203D20004272697A
:100D7C00676874204469676974616C2076616C756E
:100D8C0065203D2000427269676874207374617439
:100D9C0065203D20002C204461726B2053746174DB
:100DAC0065203D3D20006265666F7265207374613D
:100DBC007465203A20003D3D3D3D3D3D3D3D3D3D72
:100DCC003D3D3D3D3D3D3D3D3D3D3D3D656E643DC7
:100DDC003D3D3D3D3D3D3D3D3D3D3D3D3D3D3D3D37
:100DEC003D3D3D3D3D00536C656570206D6F646508
:100DFC002042726967687400536C656570206D6F72
:100E0C006465204461726B00556E6B6E6F776E205B
:100E1C00656E636F64696E670052656365697665BC
:100E2C00642000202F2000626974200050726F74BF
:100E3C006F636F6C3A200020707574206461746568
:100E4C002059592D4D4D2D44442D54542D6D6D204C
:100E5C00284E6F206C696E6520656E64696E672024
:100E6C006D646F65293A20002D2D2D006572726F0F
:100E7C007220726574797065206461746520706C81
:100E8C00656173650054696D652073657420646FCA
:100E9C006E65202D20676F20746F2070726F6772E3
:100EAC00616D0000000000B7021E043B02540246B4
:040EBC000296020098
:00000001FF
